{"contracts/HybridPool.sol":{"HybridPool":{"abi":[{"inputs":[{"internalType":"address","name":"_weth","type":"address"},{"internalType":"address","name":"_usdc","type":"address"}],"stateMutability":"nonpayable","type":"constructor"},{"anonymous":false,"inputs":[{"indexed":true,"internalType":"address","name":"provider","type":"address"},{"indexed":false,"internalType":"uint256","name":"amount0","type":"uint256"},{"indexed":false,"internalType":"uint256","name":"amount1","type":"uint256"},{"indexed":false,"internalType":"uint256","name":"lpTokens","type":"uint256"}],"name":"AddLiquidity","type":"event"},{"anonymous":false,"inputs":[{"indexed":true,"internalType":"address","name":"previousOwner","type":"address"},{"indexed":true,"internalType":"address","name":"newOwner","type":"address"}],"name":"OwnershipTransferred","type":"event"},{"anonymous":false,"inputs":[{"indexed":true,"internalType":"address","name":"provider","type":"address"},{"indexed":false,"internalType":"uint256","name":"amount0","type":"uint256"},{"indexed":false,"internalType":"uint256","name":"amount1","type":"uint256"},{"indexed":false,"internalType":"uint256","name":"lpTokens","type":"uint256"}],"name":"RemoveLiquidity","type":"event"},{"anonymous":false,"inputs":[{"indexed":true,"internalType":"address","name":"user","type":"address"},{"indexed":false,"internalType":"uint256","name":"amountIn","type":"uint256"},{"indexed":false,"internalType":"uint256","name":"amountOut","type":"uint256"},{"indexed":false,"internalType":"bool","name":"isToken0","type":"bool"}],"name":"Swap","type":"event"},{"inputs":[],"name":"MINIMUM_LIQUIDITY","outputs":[{"internalType":"uint256","name":"","type":"uint256"}],"stateMutability":"view","type":"function"},{"inputs":[],"name":"USDC","outputs":[{"internalType":"contract IERC20","name":"","type":"address"}],"stateMutability":"view","type":"function"},{"inputs":[],"name":"WETH","outputs":[{"internalType":"contract IWETH","name":"","type":"address"}],"stateMutability":"view","type":"function"},{"inputs":[{"internalType":"uint256","name":"amount1Desired","type":"uint256"}],"name":"addLiquidityETH","outputs":[{"internalType":"uint256","name":"lpTokens","type":"uint256"}],"stateMutability":"payable","type":"function"},{"inputs":[{"internalType":"uint256","name":"amountIn","type":"uint256"},{"internalType":"uint256","name":"reserveIn","type":"uint256"},{"internalType":"uint256","name":"reserveOut","type":"uint256"}],"name":"getAmountOut","outputs":[{"internalType":"uint256","name":"","type":"uint256"}],"stateMutability":"view","type":"function"},{"inputs":[{"internalType":"address","name":"","type":"address"}],"name":"lpBalances","outputs":[{"internalType":"uint256","name":"","type":"uint256"}],"stateMutability":"view","type":"function"},{"inputs":[],"name":"owner","outputs":[{"internalType":"address","name":"","type":"address"}],"stateMutability":"view","type":"function"},{"inputs":[{"internalType":"uint256","name":"lpTokens","type":"uint256"}],"name":"removeLiquidity","outputs":[{"internalType":"uint256","name":"amount0","type":"uint256"},{"internalType":"uint256","name":"amount1","type":"uint256"}],"stateMutability":"nonpayable","type":"function"},{"inputs":[],"name":"renounceOwnership","outputs":[],"stateMutability":"nonpayable","type":"function"},{"inputs":[],"name":"reserve0","outputs":[{"internalType":"uint256","name":"","type":"uint256"}],"stateMutability":"view","type":"function"},{"inputs":[],"name":"reserve1","outputs":[{"internalType":"uint256","name":"","type":"uint256"}],"stateMutability":"view","type":"function"},{"inputs":[{"internalType":"uint256","name":"newFee","type":"uint256"}],"name":"setSwapFee","outputs":[],"stateMutability":"nonpayable","type":"function"},{"inputs":[{"internalType":"uint256","name":"amountIn","type":"uint256"},{"internalType":"uint256","name":"minAmountOut","type":"uint256"}],"name":"swapExactToken0ForToken1","outputs":[{"internalType":"uint256","name":"amountOut","type":"uint256"}],"stateMutability":"nonpayable","type":"function"},{"inputs":[{"internalType":"uint256","name":"amountIn","type":"uint256"},{"internalType":"uint256","name":"minAmountOut","type":"uint256"}],"name":"swapExactToken1ForToken0","outputs":[{"internalType":"uint256","name":"amountOut","type":"uint256"}],"stateMutability":"nonpayable","type":"function"},{"inputs":[],"name":"swapFee","outputs":[{"internalType":"uint256","name":"","type":"uint256"}],"stateMutability":"view","type":"function"},{"inputs":[],"name":"totalLPTokens","outputs":[{"internalType":"uint256","name":"","type":"uint256"}],"stateMutability":"view","type":"function"},{"inputs":[{"internalType":"address","name":"newOwner","type":"address"}],"name":"transferOwnership","outputs":[],"stateMutability":"nonpayable","type":"function"}],"evm":{"bytecode":{"linkReferences":{},"object":"60c060405260036004553480156200001657600080fd5b506040516200233d3803806200233d83398181016040528101906200003c91906200021d565b60016000819055506200006462000058620000e560201b60201c565b620000ed60201b60201c565b6200007533620000ed60201b60201c565b8173ffffffffffffffffffffffffffffffffffffffff1660808173ffffffffffffffffffffffffffffffffffffffff16815250508073ffffffffffffffffffffffffffffffffffffffff1660a08173ffffffffffffffffffffffffffffffffffffffff1681525050505062000264565b600033905090565b6000600160009054906101000a900473ffffffffffffffffffffffffffffffffffffffff16905081600160006101000a81548173ffffffffffffffffffffffffffffffffffffffff021916908373ffffffffffffffffffffffffffffffffffffffff1602179055508173ffffffffffffffffffffffffffffffffffffffff168173ffffffffffffffffffffffffffffffffffffffff167f8be0079c531659141344cd1fd0a4f28419497f9722a3daafe3b4186f6b6457e060405160405180910390a35050565b600080fd5b600073ffffffffffffffffffffffffffffffffffffffff82169050919050565b6000620001e582620001b8565b9050919050565b620001f781620001d8565b81146200020357600080fd5b50565b6000815190506200021781620001ec565b92915050565b60008060408385031215620002375762000236620001b3565b5b6000620002478582860162000206565b92505060206200025a8582860162000206565b9150509250929050565b60805160a051612082620002bb600039600081816106cf015281816108b401528181610a9b01528181610c7e0152610ffa01526000818161062e0152818161095501528181610d7c0152610dff01526120826000f3fe6080604052600436106100fe5760003560e01c8063715018a611610095578063ad5c464811610064578063ad5c46481461034c578063ba9a7a5614610377578063d06d04cc146103a2578063ef6283d9146103d2578063f2fde38b146103fd576100fe565b8063715018a6146102a157806389a30271146102b85780638da5cb5b146102e35780639c8f9f231461030e576100fe565b8063443cb4bc116100d1578063443cb4bc146101e357806354cf2aeb1461020e5780635a76f25e1461023957806364eca46c14610264576100fe565b8063054d50d4146101035780630b65092d1461014057806334e199071461017d5780633e619210146101a6575b600080fd5b34801561010f57600080fd5b5061012a60048036038101906101259190611678565b610426565b60405161013791906116da565b60405180910390f35b34801561014c57600080fd5b5061016760048036038101906101629190611753565b61051d565b60405161017491906116da565b60405180910390f35b34801561018957600080fd5b506101a4600480360381019061019f9190611780565b610535565b005b3480156101b257600080fd5b506101cd60048036038101906101c891906117ad565b61058b565b6040516101da91906116da565b60405180910390f35b3480156101ef57600080fd5b506101f86107ff565b60405161020591906116da565b60405180910390f35b34801561021a57600080fd5b50610223610805565b60405161023091906116da565b60405180910390f35b34801561024557600080fd5b5061024e61080b565b60405161025b91906116da565b60405180910390f35b34801561027057600080fd5b5061028b600480360381019061028691906117ad565b610811565b60405161029891906116da565b60405180910390f35b3480156102ad57600080fd5b506102b6610a85565b005b3480156102c457600080fd5b506102cd610a99565b6040516102da919061184c565b60405180910390f35b3480156102ef57600080fd5b506102f8610abd565b6040516103059190611876565b60405180910390f35b34801561031a57600080fd5b5061033560048036038101906103309190611780565b610ae7565b604051610343929190611891565b60405180910390f35b34801561035857600080fd5b50610361610d7a565b60405161036e91906118db565b60405180910390f35b34801561038357600080fd5b5061038c610d9e565b60405161039991906116da565b60405180910390f35b6103bc60048036038101906103b79190611780565b610da4565b6040516103c991906116da565b60405180910390f35b3480156103de57600080fd5b506103e7611136565b6040516103f491906116da565b60405180910390f35b34801561040957600080fd5b50610424600480360381019061041f9190611753565b61113c565b005b600080841161046a576040517f08c379a000000000000000000000000000000000000000000000000000000000815260040161046190611953565b60405180910390fd5b60008311801561047a5750600082115b6104b9576040517f08c379a00000000000000000000000000000000000000000000000000000000081526004016104b0906119bf565b60405180910390fd5b60006004546103e86104cb9190611a0e565b856104d69190611a42565b9050600083826104e69190611a42565b90506000826103e8876104f99190611a42565b6105039190611a84565b905080826105119190611ae7565b93505050509392505050565b60056020528060005260406000206000915090505481565b61053d6111bf565b601e811115610581576040517f08c379a000000000000000000000000000000000000000000000000000000000815260040161057890611b64565b60405180910390fd5b8060048190555050565b600061059561123d565b600083116105d8576040517f08c379a00000000000000000000000000000000000000000000000000000000081526004016105cf90611953565b60405180910390fd5b6105e783600254600354610426565b90508181101561062c576040517f08c379a000000000000000000000000000000000000000000000000000000000815260040161062390611bd0565b60405180910390fd5b7f000000000000000000000000000000000000000000000000000000000000000073ffffffffffffffffffffffffffffffffffffffff166323b872dd3330866040518463ffffffff1660e01b815260040161068993929190611bf0565b6020604051808303816000875af11580156106a8573d6000803e3d6000fd5b505050506040513d601f19601f820116820180604052508101906106cc9190611c5f565b507f000000000000000000000000000000000000000000000000000000000000000073ffffffffffffffffffffffffffffffffffffffff1663a9059cbb33836040518363ffffffff1660e01b8152600401610728929190611c8c565b6020604051808303816000875af1158015610747573d6000803e3d6000fd5b505050506040513d601f19601f8201168201806040525081019061076b9190611c5f565b50826002600082825461077e9190611a84565b9250508190555080600360008282546107979190611a0e565b925050819055503373ffffffffffffffffffffffffffffffffffffffff167fcc65e4d9060ece2ecf63011ac580550b04c8daeba63fac4dfe8669353cd88859848360016040516107e993929190611cc4565b60405180910390a26107f961128c565b92915050565b60025481565b60045481565b60035481565b600061081b61123d565b6000831161085e576040517f08c379a000000000000000000000000000000000000000000000000000000000815260040161085590611953565b60405180910390fd5b61086d83600354600254610426565b9050818110156108b2576040517f08c379a00000000000000000000000000000000000000000000000000000000081526004016108a990611bd0565b60405180910390fd5b7f000000000000000000000000000000000000000000000000000000000000000073ffffffffffffffffffffffffffffffffffffffff166323b872dd3330866040518463ffffffff1660e01b815260040161090f93929190611bf0565b6020604051808303816000875af115801561092e573d6000803e3d6000fd5b505050506040513d601f19601f820116820180604052508101906109529190611c5f565b507f000000000000000000000000000000000000000000000000000000000000000073ffffffffffffffffffffffffffffffffffffffff1663a9059cbb33836040518363ffffffff1660e01b81526004016109ae929190611c8c565b6020604051808303816000875af11580156109cd573d6000803e3d6000fd5b505050506040513d601f19601f820116820180604052508101906109f19190611c5f565b508260036000828254610a049190611a84565b925050819055508060026000828254610a1d9190611a0e565b925050819055503373ffffffffffffffffffffffffffffffffffffffff167fcc65e4d9060ece2ecf63011ac580550b04c8daeba63fac4dfe8669353cd8885984836000604051610a6f93929190611cc4565b60405180910390a2610a7f61128c565b92915050565b610a8d6111bf565b610a976000611296565b565b7f000000000000000000000000000000000000000000000000000000000000000081565b6000600160009054906101000a900473ffffffffffffffffffffffffffffffffffffffff16905090565b600080610af261123d565b60008311610b35576040517f08c379a0000000000000000000000000000000000000000000000000000000008152600401610b2c90611d47565b60405180910390fd5b82600560003373ffffffffffffffffffffffffffffffffffffffff1673ffffffffffffffffffffffffffffffffffffffff168152602001908152602001600020541015610bb7576040517f08c379a0000000000000000000000000000000000000000000000000000000008152600401610bae90611db3565b60405180910390fd5b60065460025484610bc89190611a42565b610bd29190611ae7565b915060065460035484610be59190611a42565b610bef9190611ae7565b9050600082118015610c015750600081115b610c40576040517f08c379a0000000000000000000000000000000000000000000000000000000008152600401610c37906119bf565b60405180910390fd5b610c4a338461135c565b8160026000828254610c5c9190611a0e565b925050819055508060036000828254610c759190611a0e565b925050819055507f000000000000000000000000000000000000000000000000000000000000000073ffffffffffffffffffffffffffffffffffffffff1663a9059cbb33836040518363ffffffff1660e01b8152600401610cd7929190611c8c565b6020604051808303816000875af1158015610cf6573d6000803e3d6000fd5b505050506040513d601f19601f82011682018060405250810190610d1a9190611c5f565b503373ffffffffffffffffffffffffffffffffffffffff167f59c3a0b60c6ab7deb62e1440c9e72441db6db7dfe514dba8cb18e60c0d896efa838386604051610d6593929190611dd3565b60405180910390a2610d7561128c565b915091565b7f000000000000000000000000000000000000000000000000000000000000000081565b6103e881565b6000610dae61123d565b600034118015610dbe5750600082115b610dfd576040517f08c379a0000000000000000000000000000000000000000000000000000000008152600401610df490611e56565b60405180910390fd5b7f000000000000000000000000000000000000000000000000000000000000000073ffffffffffffffffffffffffffffffffffffffff1663d0e30db0346040518263ffffffff1660e01b81526004016000604051808303818588803b158015610e6557600080fd5b505af1158015610e79573d6000803e3d6000fd5b50505050506000349050600080600254148015610e9857506000600354145b15610ed5578390506103e8610eb78284610eb29190611a42565b6113cf565b610ec19190611a0e565b9250610ed060006103e86114c8565b610fb5565b60025460035483610ee69190611a42565b610ef09190611ae7565b9050838111610f0157349150610f74565b60035460025485610f129190611a42565b610f1c9190611ae7565b91508390503373ffffffffffffffffffffffffffffffffffffffff166108fc8334610f479190611a0e565b9081150290604051600060405180830381858888f19350505050158015610f72573d6000803e3d6000fd5b505b610fb260025460065484610f889190611a42565b610f929190611ae7565b60035460065484610fa39190611a42565b610fad9190611ae7565b61153b565b92505b60008311610ff8576040517f08c379a0000000000000000000000000000000000000000000000000000000008152600401610fef90611ec2565b60405180910390fd5b7f000000000000000000000000000000000000000000000000000000000000000073ffffffffffffffffffffffffffffffffffffffff166323b872dd3330846040518463ffffffff1660e01b815260040161105593929190611bf0565b6020604051808303816000875af1158015611074573d6000803e3d6000fd5b505050506040513d601f19601f820116820180604052508101906110989190611c5f565b5081600260008282546110ab9190611a84565b9250508190555080600360008282546110c49190611a84565b925050819055506110d533846114c8565b3373ffffffffffffffffffffffffffffffffffffffff167fbeb3885786d637a474cbc287c0a44587231633a077f0bd30354d5a4b18996fce83838660405161111f93929190611dd3565b60405180910390a2505061113161128c565b919050565b60065481565b6111446111bf565b600073ffffffffffffffffffffffffffffffffffffffff168173ffffffffffffffffffffffffffffffffffffffff16036111b3576040517f08c379a00000000000000000000000000000000000000000000000000000000081526004016111aa90611f54565b60405180910390fd5b6111bc81611296565b50565b6111c7611554565b73ffffffffffffffffffffffffffffffffffffffff166111e5610abd565b73ffffffffffffffffffffffffffffffffffffffff161461123b576040517f08c379a000000000000000000000000000000000000000000000000000000000815260040161123290611fc0565b60405180910390fd5b565b600260005403611282576040517f08c379a00000000000000000000000000000000000000000000000000000000081526004016112799061202c565b60405180910390fd5b6002600081905550565b6001600081905550565b6000600160009054906101000a900473ffffffffffffffffffffffffffffffffffffffff16905081600160006101000a81548173ffffffffffffffffffffffffffffffffffffffff021916908373ffffffffffffffffffffffffffffffffffffffff1602179055508173ffffffffffffffffffffffffffffffffffffffff168173ffffffffffffffffffffffffffffffffffffffff167f8be0079c531659141344cd1fd0a4f28419497f9722a3daafe3b4186f6b6457e060405160405180910390a35050565b80600560008473ffffffffffffffffffffffffffffffffffffffff1673ffffffffffffffffffffffffffffffffffffffff16815260200190815260200160002060008282546113ab9190611a0e565b9250508190555080600660008282546113c49190611a0e565b925050819055505050565b60008082036113e157600090506114c3565b600060016113ee8461155c565b901c6001901b9050600181848161140857611407611ab8565b5b048201901c9050600181848161142157611420611ab8565b5b048201901c9050600181848161143a57611439611ab8565b5b048201901c9050600181848161145357611452611ab8565b5b048201901c9050600181848161146c5761146b611ab8565b5b048201901c9050600181848161148557611484611ab8565b5b048201901c9050600181848161149e5761149d611ab8565b5b048201901c90506114bf818285816114b9576114b8611ab8565b5b0461153b565b9150505b919050565b80600560008473ffffffffffffffffffffffffffffffffffffffff1673ffffffffffffffffffffffffffffffffffffffff16815260200190815260200160002060008282546115179190611a84565b9250508190555080600660008282546115309190611a84565b925050819055505050565b600081831061154a578161154c565b825b905092915050565b600033905090565b600080600090506000608084901c111561157e57608083901c92506080810190505b6000604084901c111561159957604083901c92506040810190505b6000602084901c11156115b457602083901c92506020810190505b6000601084901c11156115cf57601083901c92506010810190505b6000600884901c11156115ea57600883901c92506008810190505b6000600484901c111561160557600483901c92506004810190505b6000600284901c111561162057600283901c92506002810190505b6000600184901c1115611634576001810190505b80915050919050565b600080fd5b6000819050919050565b61165581611642565b811461166057600080fd5b50565b6000813590506116728161164c565b92915050565b6000806000606084860312156116915761169061163d565b5b600061169f86828701611663565b93505060206116b086828701611663565b92505060406116c186828701611663565b9150509250925092565b6116d481611642565b82525050565b60006020820190506116ef60008301846116cb565b92915050565b600073ffffffffffffffffffffffffffffffffffffffff82169050919050565b6000611720826116f5565b9050919050565b61173081611715565b811461173b57600080fd5b50565b60008135905061174d81611727565b92915050565b6000602082840312156117695761176861163d565b5b60006117778482850161173e565b91505092915050565b6000602082840312156117965761179561163d565b5b60006117a484828501611663565b91505092915050565b600080604083850312156117c4576117c361163d565b5b60006117d285828601611663565b92505060206117e385828601611663565b9150509250929050565b6000819050919050565b600061181261180d611808846116f5565b6117ed565b6116f5565b9050919050565b6000611824826117f7565b9050919050565b600061183682611819565b9050919050565b6118468161182b565b82525050565b6000602082019050611861600083018461183d565b92915050565b61187081611715565b82525050565b600060208201905061188b6000830184611867565b92915050565b60006040820190506118a660008301856116cb565b6118b360208301846116cb565b9392505050565b60006118c582611819565b9050919050565b6118d5816118ba565b82525050565b60006020820190506118f060008301846118cc565b92915050565b600082825260208201905092915050565b7f496e76616c696420696e70757420616d6f756e74000000000000000000000000600082015250565b600061193d6014836118f6565b915061194882611907565b602082019050919050565b6000602082019050818103600083015261196c81611930565b9050919050565b7f496e73756666696369656e74206c697175696469747900000000000000000000600082015250565b60006119a96016836118f6565b91506119b482611973565b602082019050919050565b600060208201905081810360008301526119d88161199c565b9050919050565b7f4e487b7100000000000000000000000000000000000000000000000000000000600052601160045260246000fd5b6000611a1982611642565b9150611a2483611642565b9250828203905081811115611a3c57611a3b6119df565b5b92915050565b6000611a4d82611642565b9150611a5883611642565b9250828202611a6681611642565b91508282048414831517611a7d57611a7c6119df565b5b5092915050565b6000611a8f82611642565b9150611a9a83611642565b9250828201905080821115611ab257611ab16119df565b5b92915050565b7f4e487b7100000000000000000000000000000000000000000000000000000000600052601260045260246000fd5b6000611af282611642565b9150611afd83611642565b925082611b0d57611b0c611ab8565b5b828204905092915050565b7f46656520746f6f20686967680000000000000000000000000000000000000000600082015250565b6000611b4e600c836118f6565b9150611b5982611b18565b602082019050919050565b60006020820190508181036000830152611b7d81611b41565b9050919050565b7f496e73756666696369656e74206f757470757420616d6f756e74000000000000600082015250565b6000611bba601a836118f6565b9150611bc582611b84565b602082019050919050565b60006020820190508181036000830152611be981611bad565b9050919050565b6000606082019050611c056000830186611867565b611c126020830185611867565b611c1f60408301846116cb565b949350505050565b60008115159050919050565b611c3c81611c27565b8114611c4757600080fd5b50565b600081519050611c5981611c33565b92915050565b600060208284031215611c7557611c7461163d565b5b6000611c8384828501611c4a565b91505092915050565b6000604082019050611ca16000830185611867565b611cae60208301846116cb565b9392505050565b611cbe81611c27565b82525050565b6000606082019050611cd960008301866116cb565b611ce660208301856116cb565b611cf36040830184611cb5565b949350505050565b7f496e76616c6964204c5020746f6b656e73000000000000000000000000000000600082015250565b6000611d316011836118f6565b9150611d3c82611cfb565b602082019050919050565b60006020820190508181036000830152611d6081611d24565b9050919050565b7f496e73756666696369656e74204c502062616c616e6365000000000000000000600082015250565b6000611d9d6017836118f6565b9150611da882611d67565b602082019050919050565b60006020820190508181036000830152611dcc81611d90565b9050919050565b6000606082019050611de860008301866116cb565b611df560208301856116cb565b611e0260408301846116cb565b949350505050565b7f496e76616c696420616d6f756e74730000000000000000000000000000000000600082015250565b6000611e40600f836118f6565b9150611e4b82611e0a565b602082019050919050565b60006020820190508181036000830152611e6f81611e33565b9050919050565b7f496e73756666696369656e74206c6971756964697479206d696e746564000000600082015250565b6000611eac601d836118f6565b9150611eb782611e76565b602082019050919050565b60006020820190508181036000830152611edb81611e9f565b9050919050565b7f4f776e61626c653a206e6577206f776e657220697320746865207a65726f206160008201527f6464726573730000000000000000000000000000000000000000000000000000602082015250565b6000611f3e6026836118f6565b9150611f4982611ee2565b604082019050919050565b60006020820190508181036000830152611f6d81611f31565b9050919050565b7f4f776e61626c653a2063616c6c6572206973206e6f7420746865206f776e6572600082015250565b6000611faa6020836118f6565b9150611fb582611f74565b602082019050919050565b60006020820190508181036000830152611fd981611f9d565b9050919050565b7f5265656e7472616e637947756172643a207265656e7472616e742063616c6c00600082015250565b6000612016601f836118f6565b915061202182611fe0565b602082019050919050565b6000602082019050818103600083015261204581612009565b905091905056fea26469706673582212207af6d68d2bc3788a6c56157c69e302078a4a9c2c59c53bf23a046cc7bd7a92bf64736f6c63430008130033","opcodes":"PUSH1 0xC0 PUSH1 0x40 MSTORE PUSH1 0x3 PUSH1 0x4 SSTORE CALLVALUE DUP1 ISZERO PUSH3 0x16 JUMPI PUSH1 0x0 DUP1 REVERT JUMPDEST POP PUSH1 0x40 MLOAD PUSH3 0x233D CODESIZE SUB DUP1 PUSH3 0x233D DUP4 CODECOPY DUP2 DUP2 ADD PUSH1 0x40 MSTORE DUP2 ADD SWAP1 PUSH3 0x3C SWAP2 SWAP1 PUSH3 0x21D JUMP JUMPDEST PUSH1 0x1 PUSH1 0x0 DUP2 SWAP1 SSTORE POP PUSH3 0x64 PUSH3 0x58 PUSH3 0xE5 PUSH1 0x20 SHL PUSH1 0x20 SHR JUMP JUMPDEST PUSH3 0xED PUSH1 0x20 SHL PUSH1 0x20 SHR JUMP JUMPDEST PUSH3 0x75 CALLER PUSH3 0xED PUSH1 0x20 SHL PUSH1 0x20 SHR JUMP JUMPDEST DUP2 PUSH20 0xFFFFFFFFFFFFFFFFFFFFFFFFFFFFFFFFFFFFFFFF AND PUSH1 0x80 DUP2 PUSH20 0xFFFFFFFFFFFFFFFFFFFFFFFFFFFFFFFFFFFFFFFF AND DUP2 MSTORE POP POP DUP1 PUSH20 0xFFFFFFFFFFFFFFFFFFFFFFFFFFFFFFFFFFFFFFFF AND PUSH1 0xA0 DUP2 PUSH20 0xFFFFFFFFFFFFFFFFFFFFFFFFFFFFFFFFFFFFFFFF AND DUP2 MSTORE POP POP POP POP PUSH3 0x264 JUMP JUMPDEST PUSH1 0x0 CALLER SWAP1 POP SWAP1 JUMP JUMPDEST PUSH1 0x0 PUSH1 0x1 PUSH1 0x0 SWAP1 SLOAD SWAP1 PUSH2 0x100 EXP SWAP1 DIV PUSH20 0xFFFFFFFFFFFFFFFFFFFFFFFFFFFFFFFFFFFFFFFF AND SWAP1 POP DUP2 PUSH1 0x1 PUSH1 0x0 PUSH2 0x100 EXP DUP2 SLOAD DUP2 PUSH20 0xFFFFFFFFFFFFFFFFFFFFFFFFFFFFFFFFFFFFFFFF MUL NOT AND SWAP1 DUP4 PUSH20 0xFFFFFFFFFFFFFFFFFFFFFFFFFFFFFFFFFFFFFFFF AND MUL OR SWAP1 SSTORE POP DUP2 PUSH20 0xFFFFFFFFFFFFFFFFFFFFFFFFFFFFFFFFFFFFFFFF AND DUP2 PUSH20 0xFFFFFFFFFFFFFFFFFFFFFFFFFFFFFFFFFFFFFFFF AND PUSH32 0x8BE0079C531659141344CD1FD0A4F28419497F9722A3DAAFE3B4186F6B6457E0 PUSH1 0x40 MLOAD PUSH1 0x40 MLOAD DUP1 SWAP2 SUB SWAP1 LOG3 POP POP JUMP JUMPDEST PUSH1 0x0 DUP1 REVERT JUMPDEST PUSH1 0x0 PUSH20 0xFFFFFFFFFFFFFFFFFFFFFFFFFFFFFFFFFFFFFFFF DUP3 AND SWAP1 POP SWAP2 SWAP1 POP JUMP JUMPDEST PUSH1 0x0 PUSH3 0x1E5 DUP3 PUSH3 0x1B8 JUMP JUMPDEST SWAP1 POP SWAP2 SWAP1 POP JUMP JUMPDEST PUSH3 0x1F7 DUP2 PUSH3 0x1D8 JUMP JUMPDEST DUP2 EQ PUSH3 0x203 JUMPI PUSH1 0x0 DUP1 REVERT JUMPDEST POP JUMP JUMPDEST PUSH1 0x0 DUP2 MLOAD SWAP1 POP PUSH3 0x217 DUP2 PUSH3 0x1EC JUMP JUMPDEST SWAP3 SWAP2 POP POP JUMP JUMPDEST PUSH1 0x0 DUP1 PUSH1 0x40 DUP4 DUP6 SUB SLT ISZERO PUSH3 0x237 JUMPI PUSH3 0x236 PUSH3 0x1B3 JUMP JUMPDEST JUMPDEST PUSH1 0x0 PUSH3 0x247 DUP6 DUP3 DUP7 ADD PUSH3 0x206 JUMP JUMPDEST SWAP3 POP POP PUSH1 0x20 PUSH3 0x25A DUP6 DUP3 DUP7 ADD PUSH3 0x206 JUMP JUMPDEST SWAP2 POP POP SWAP3 POP SWAP3 SWAP1 POP JUMP JUMPDEST PUSH1 0x80 MLOAD PUSH1 0xA0 MLOAD PUSH2 0x2082 PUSH3 0x2BB PUSH1 0x0 CODECOPY PUSH1 0x0 DUP2 DUP2 PUSH2 0x6CF ADD MSTORE DUP2 DUP2 PUSH2 0x8B4 ADD MSTORE DUP2 DUP2 PUSH2 0xA9B ADD MSTORE DUP2 DUP2 PUSH2 0xC7E ADD MSTORE PUSH2 0xFFA ADD MSTORE PUSH1 0x0 DUP2 DUP2 PUSH2 0x62E ADD MSTORE DUP2 DUP2 PUSH2 0x955 ADD MSTORE DUP2 DUP2 PUSH2 0xD7C ADD MSTORE PUSH2 0xDFF ADD MSTORE PUSH2 0x2082 PUSH1 0x0 RETURN INVALID PUSH1 0x80 PUSH1 0x40 MSTORE PUSH1 0x4 CALLDATASIZE LT PUSH2 0xFE JUMPI PUSH1 0x0 CALLDATALOAD PUSH1 0xE0 SHR DUP1 PUSH4 0x715018A6 GT PUSH2 0x95 JUMPI DUP1 PUSH4 0xAD5C4648 GT PUSH2 0x64 JUMPI DUP1 PUSH4 0xAD5C4648 EQ PUSH2 0x34C JUMPI DUP1 PUSH4 0xBA9A7A56 EQ PUSH2 0x377 JUMPI DUP1 PUSH4 0xD06D04CC EQ PUSH2 0x3A2 JUMPI DUP1 PUSH4 0xEF6283D9 EQ PUSH2 0x3D2 JUMPI DUP1 PUSH4 0xF2FDE38B EQ PUSH2 0x3FD JUMPI PUSH2 0xFE JUMP JUMPDEST DUP1 PUSH4 0x715018A6 EQ PUSH2 0x2A1 JUMPI DUP1 PUSH4 0x89A30271 EQ PUSH2 0x2B8 JUMPI DUP1 PUSH4 0x8DA5CB5B EQ PUSH2 0x2E3 JUMPI DUP1 PUSH4 0x9C8F9F23 EQ PUSH2 0x30E JUMPI PUSH2 0xFE JUMP JUMPDEST DUP1 PUSH4 0x443CB4BC GT PUSH2 0xD1 JUMPI DUP1 PUSH4 0x443CB4BC EQ PUSH2 0x1E3 JUMPI DUP1 PUSH4 0x54CF2AEB EQ PUSH2 0x20E JUMPI DUP1 PUSH4 0x5A76F25E EQ PUSH2 0x239 JUMPI DUP1 PUSH4 0x64ECA46C EQ PUSH2 0x264 JUMPI PUSH2 0xFE JUMP JUMPDEST DUP1 PUSH4 0x54D50D4 EQ PUSH2 0x103 JUMPI DUP1 PUSH4 0xB65092D EQ PUSH2 0x140 JUMPI DUP1 PUSH4 0x34E19907 EQ PUSH2 0x17D JUMPI DUP1 PUSH4 0x3E619210 EQ PUSH2 0x1A6 JUMPI JUMPDEST PUSH1 0x0 DUP1 REVERT JUMPDEST CALLVALUE DUP1 ISZERO PUSH2 0x10F JUMPI PUSH1 0x0 DUP1 REVERT JUMPDEST POP PUSH2 0x12A PUSH1 0x4 DUP1 CALLDATASIZE SUB DUP2 ADD SWAP1 PUSH2 0x125 SWAP2 SWAP1 PUSH2 0x1678 JUMP JUMPDEST PUSH2 0x426 JUMP JUMPDEST PUSH1 0x40 MLOAD PUSH2 0x137 SWAP2 SWAP1 PUSH2 0x16DA JUMP JUMPDEST PUSH1 0x40 MLOAD DUP1 SWAP2 SUB SWAP1 RETURN JUMPDEST CALLVALUE DUP1 ISZERO PUSH2 0x14C JUMPI PUSH1 0x0 DUP1 REVERT JUMPDEST POP PUSH2 0x167 PUSH1 0x4 DUP1 CALLDATASIZE SUB DUP2 ADD SWAP1 PUSH2 0x162 SWAP2 SWAP1 PUSH2 0x1753 JUMP JUMPDEST PUSH2 0x51D JUMP JUMPDEST PUSH1 0x40 MLOAD PUSH2 0x174 SWAP2 SWAP1 PUSH2 0x16DA JUMP JUMPDEST PUSH1 0x40 MLOAD DUP1 SWAP2 SUB SWAP1 RETURN JUMPDEST CALLVALUE DUP1 ISZERO PUSH2 0x189 JUMPI PUSH1 0x0 DUP1 REVERT JUMPDEST POP PUSH2 0x1A4 PUSH1 0x4 DUP1 CALLDATASIZE SUB DUP2 ADD SWAP1 PUSH2 0x19F SWAP2 SWAP1 PUSH2 0x1780 JUMP JUMPDEST PUSH2 0x535 JUMP JUMPDEST STOP JUMPDEST CALLVALUE DUP1 ISZERO PUSH2 0x1B2 JUMPI PUSH1 0x0 DUP1 REVERT JUMPDEST POP PUSH2 0x1CD PUSH1 0x4 DUP1 CALLDATASIZE SUB DUP2 ADD SWAP1 PUSH2 0x1C8 SWAP2 SWAP1 PUSH2 0x17AD JUMP JUMPDEST PUSH2 0x58B JUMP JUMPDEST PUSH1 0x40 MLOAD PUSH2 0x1DA SWAP2 SWAP1 PUSH2 0x16DA JUMP JUMPDEST PUSH1 0x40 MLOAD DUP1 SWAP2 SUB SWAP1 RETURN JUMPDEST CALLVALUE DUP1 ISZERO PUSH2 0x1EF JUMPI PUSH1 0x0 DUP1 REVERT JUMPDEST POP PUSH2 0x1F8 PUSH2 0x7FF JUMP JUMPDEST PUSH1 0x40 MLOAD PUSH2 0x205 SWAP2 SWAP1 PUSH2 0x16DA JUMP JUMPDEST PUSH1 0x40 MLOAD DUP1 SWAP2 SUB SWAP1 RETURN JUMPDEST CALLVALUE DUP1 ISZERO PUSH2 0x21A JUMPI PUSH1 0x0 DUP1 REVERT JUMPDEST POP PUSH2 0x223 PUSH2 0x805 JUMP JUMPDEST PUSH1 0x40 MLOAD PUSH2 0x230 SWAP2 SWAP1 PUSH2 0x16DA JUMP JUMPDEST PUSH1 0x40 MLOAD DUP1 SWAP2 SUB SWAP1 RETURN JUMPDEST CALLVALUE DUP1 ISZERO PUSH2 0x245 JUMPI PUSH1 0x0 DUP1 REVERT JUMPDEST POP PUSH2 0x24E PUSH2 0x80B JUMP JUMPDEST PUSH1 0x40 MLOAD PUSH2 0x25B SWAP2 SWAP1 PUSH2 0x16DA JUMP JUMPDEST PUSH1 0x40 MLOAD DUP1 SWAP2 SUB SWAP1 RETURN JUMPDEST CALLVALUE DUP1 ISZERO PUSH2 0x270 JUMPI PUSH1 0x0 DUP1 REVERT JUMPDEST POP PUSH2 0x28B PUSH1 0x4 DUP1 CALLDATASIZE SUB DUP2 ADD SWAP1 PUSH2 0x286 SWAP2 SWAP1 PUSH2 0x17AD JUMP JUMPDEST PUSH2 0x811 JUMP JUMPDEST PUSH1 0x40 MLOAD PUSH2 0x298 SWAP2 SWAP1 PUSH2 0x16DA JUMP JUMPDEST PUSH1 0x40 MLOAD DUP1 SWAP2 SUB SWAP1 RETURN JUMPDEST CALLVALUE DUP1 ISZERO PUSH2 0x2AD JUMPI PUSH1 0x0 DUP1 REVERT JUMPDEST POP PUSH2 0x2B6 PUSH2 0xA85 JUMP JUMPDEST STOP JUMPDEST CALLVALUE DUP1 ISZERO PUSH2 0x2C4 JUMPI PUSH1 0x0 DUP1 REVERT JUMPDEST POP PUSH2 0x2CD PUSH2 0xA99 JUMP JUMPDEST PUSH1 0x40 MLOAD PUSH2 0x2DA SWAP2 SWAP1 PUSH2 0x184C JUMP JUMPDEST PUSH1 0x40 MLOAD DUP1 SWAP2 SUB SWAP1 RETURN JUMPDEST CALLVALUE DUP1 ISZERO PUSH2 0x2EF JUMPI PUSH1 0x0 DUP1 REVERT JUMPDEST POP PUSH2 0x2F8 PUSH2 0xABD JUMP JUMPDEST PUSH1 0x40 MLOAD PUSH2 0x305 SWAP2 SWAP1 PUSH2 0x1876 JUMP JUMPDEST PUSH1 0x40 MLOAD DUP1 SWAP2 SUB SWAP1 RETURN JUMPDEST CALLVALUE DUP1 ISZERO PUSH2 0x31A JUMPI PUSH1 0x0 DUP1 REVERT JUMPDEST POP PUSH2 0x335 PUSH1 0x4 DUP1 CALLDATASIZE SUB DUP2 ADD SWAP1 PUSH2 0x330 SWAP2 SWAP1 PUSH2 0x1780 JUMP JUMPDEST PUSH2 0xAE7 JUMP JUMPDEST PUSH1 0x40 MLOAD PUSH2 0x343 SWAP3 SWAP2 SWAP1 PUSH2 0x1891 JUMP JUMPDEST PUSH1 0x40 MLOAD DUP1 SWAP2 SUB SWAP1 RETURN JUMPDEST CALLVALUE DUP1 ISZERO PUSH2 0x358 JUMPI PUSH1 0x0 DUP1 REVERT JUMPDEST POP PUSH2 0x361 PUSH2 0xD7A JUMP JUMPDEST PUSH1 0x40 MLOAD PUSH2 0x36E SWAP2 SWAP1 PUSH2 0x18DB JUMP JUMPDEST PUSH1 0x40 MLOAD DUP1 SWAP2 SUB SWAP1 RETURN JUMPDEST CALLVALUE DUP1 ISZERO PUSH2 0x383 JUMPI PUSH1 0x0 DUP1 REVERT JUMPDEST POP PUSH2 0x38C PUSH2 0xD9E JUMP JUMPDEST PUSH1 0x40 MLOAD PUSH2 0x399 SWAP2 SWAP1 PUSH2 0x16DA JUMP JUMPDEST PUSH1 0x40 MLOAD DUP1 SWAP2 SUB SWAP1 RETURN JUMPDEST PUSH2 0x3BC PUSH1 0x4 DUP1 CALLDATASIZE SUB DUP2 ADD SWAP1 PUSH2 0x3B7 SWAP2 SWAP1 PUSH2 0x1780 JUMP JUMPDEST PUSH2 0xDA4 JUMP JUMPDEST PUSH1 0x40 MLOAD PUSH2 0x3C9 SWAP2 SWAP1 PUSH2 0x16DA JUMP JUMPDEST PUSH1 0x40 MLOAD DUP1 SWAP2 SUB SWAP1 RETURN JUMPDEST CALLVALUE DUP1 ISZERO PUSH2 0x3DE JUMPI PUSH1 0x0 DUP1 REVERT JUMPDEST POP PUSH2 0x3E7 PUSH2 0x1136 JUMP JUMPDEST PUSH1 0x40 MLOAD PUSH2 0x3F4 SWAP2 SWAP1 PUSH2 0x16DA JUMP JUMPDEST PUSH1 0x40 MLOAD DUP1 SWAP2 SUB SWAP1 RETURN JUMPDEST CALLVALUE DUP1 ISZERO PUSH2 0x409 JUMPI PUSH1 0x0 DUP1 REVERT JUMPDEST POP PUSH2 0x424 PUSH1 0x4 DUP1 CALLDATASIZE SUB DUP2 ADD SWAP1 PUSH2 0x41F SWAP2 SWAP1 PUSH2 0x1753 JUMP JUMPDEST PUSH2 0x113C JUMP JUMPDEST STOP JUMPDEST PUSH1 0x0 DUP1 DUP5 GT PUSH2 0x46A JUMPI PUSH1 0x40 MLOAD PUSH32 0x8C379A000000000000000000000000000000000000000000000000000000000 DUP2 MSTORE PUSH1 0x4 ADD PUSH2 0x461 SWAP1 PUSH2 0x1953 JUMP JUMPDEST PUSH1 0x40 MLOAD DUP1 SWAP2 SUB SWAP1 REVERT JUMPDEST PUSH1 0x0 DUP4 GT DUP1 ISZERO PUSH2 0x47A JUMPI POP PUSH1 0x0 DUP3 GT JUMPDEST PUSH2 0x4B9 JUMPI PUSH1 0x40 MLOAD PUSH32 0x8C379A000000000000000000000000000000000000000000000000000000000 DUP2 MSTORE PUSH1 0x4 ADD PUSH2 0x4B0 SWAP1 PUSH2 0x19BF JUMP JUMPDEST PUSH1 0x40 MLOAD DUP1 SWAP2 SUB SWAP1 REVERT JUMPDEST PUSH1 0x0 PUSH1 0x4 SLOAD PUSH2 0x3E8 PUSH2 0x4CB SWAP2 SWAP1 PUSH2 0x1A0E JUMP JUMPDEST DUP6 PUSH2 0x4D6 SWAP2 SWAP1 PUSH2 0x1A42 JUMP JUMPDEST SWAP1 POP PUSH1 0x0 DUP4 DUP3 PUSH2 0x4E6 SWAP2 SWAP1 PUSH2 0x1A42 JUMP JUMPDEST SWAP1 POP PUSH1 0x0 DUP3 PUSH2 0x3E8 DUP8 PUSH2 0x4F9 SWAP2 SWAP1 PUSH2 0x1A42 JUMP JUMPDEST PUSH2 0x503 SWAP2 SWAP1 PUSH2 0x1A84 JUMP JUMPDEST SWAP1 POP DUP1 DUP3 PUSH2 0x511 SWAP2 SWAP1 PUSH2 0x1AE7 JUMP JUMPDEST SWAP4 POP POP POP POP SWAP4 SWAP3 POP POP POP JUMP JUMPDEST PUSH1 0x5 PUSH1 0x20 MSTORE DUP1 PUSH1 0x0 MSTORE PUSH1 0x40 PUSH1 0x0 KECCAK256 PUSH1 0x0 SWAP2 POP SWAP1 POP SLOAD DUP2 JUMP JUMPDEST PUSH2 0x53D PUSH2 0x11BF JUMP JUMPDEST PUSH1 0x1E DUP2 GT ISZERO PUSH2 0x581 JUMPI PUSH1 0x40 MLOAD PUSH32 0x8C379A000000000000000000000000000000000000000000000000000000000 DUP2 MSTORE PUSH1 0x4 ADD PUSH2 0x578 SWAP1 PUSH2 0x1B64 JUMP JUMPDEST PUSH1 0x40 MLOAD DUP1 SWAP2 SUB SWAP1 REVERT JUMPDEST DUP1 PUSH1 0x4 DUP2 SWAP1 SSTORE POP POP JUMP JUMPDEST PUSH1 0x0 PUSH2 0x595 PUSH2 0x123D JUMP JUMPDEST PUSH1 0x0 DUP4 GT PUSH2 0x5D8 JUMPI PUSH1 0x40 MLOAD PUSH32 0x8C379A000000000000000000000000000000000000000000000000000000000 DUP2 MSTORE PUSH1 0x4 ADD PUSH2 0x5CF SWAP1 PUSH2 0x1953 JUMP JUMPDEST PUSH1 0x40 MLOAD DUP1 SWAP2 SUB SWAP1 REVERT JUMPDEST PUSH2 0x5E7 DUP4 PUSH1 0x2 SLOAD PUSH1 0x3 SLOAD PUSH2 0x426 JUMP JUMPDEST SWAP1 POP DUP2 DUP2 LT ISZERO PUSH2 0x62C JUMPI PUSH1 0x40 MLOAD PUSH32 0x8C379A000000000000000000000000000000000000000000000000000000000 DUP2 MSTORE PUSH1 0x4 ADD PUSH2 0x623 SWAP1 PUSH2 0x1BD0 JUMP JUMPDEST PUSH1 0x40 MLOAD DUP1 SWAP2 SUB SWAP1 REVERT JUMPDEST PUSH32 0x0 PUSH20 0xFFFFFFFFFFFFFFFFFFFFFFFFFFFFFFFFFFFFFFFF AND PUSH4 0x23B872DD CALLER ADDRESS DUP7 PUSH1 0x40 MLOAD DUP5 PUSH4 0xFFFFFFFF AND PUSH1 0xE0 SHL DUP2 MSTORE PUSH1 0x4 ADD PUSH2 0x689 SWAP4 SWAP3 SWAP2 SWAP1 PUSH2 0x1BF0 JUMP JUMPDEST PUSH1 0x20 PUSH1 0x40 MLOAD DUP1 DUP4 SUB DUP2 PUSH1 0x0 DUP8 GAS CALL ISZERO DUP1 ISZERO PUSH2 0x6A8 JUMPI RETURNDATASIZE PUSH1 0x0 DUP1 RETURNDATACOPY RETURNDATASIZE PUSH1 0x0 REVERT JUMPDEST POP POP POP POP PUSH1 0x40 MLOAD RETURNDATASIZE PUSH1 0x1F NOT PUSH1 0x1F DUP3 ADD AND DUP3 ADD DUP1 PUSH1 0x40 MSTORE POP DUP2 ADD SWAP1 PUSH2 0x6CC SWAP2 SWAP1 PUSH2 0x1C5F JUMP JUMPDEST POP PUSH32 0x0 PUSH20 0xFFFFFFFFFFFFFFFFFFFFFFFFFFFFFFFFFFFFFFFF AND PUSH4 0xA9059CBB CALLER DUP4 PUSH1 0x40 MLOAD DUP4 PUSH4 0xFFFFFFFF AND PUSH1 0xE0 SHL DUP2 MSTORE PUSH1 0x4 ADD PUSH2 0x728 SWAP3 SWAP2 SWAP1 PUSH2 0x1C8C JUMP JUMPDEST PUSH1 0x20 PUSH1 0x40 MLOAD DUP1 DUP4 SUB DUP2 PUSH1 0x0 DUP8 GAS CALL ISZERO DUP1 ISZERO PUSH2 0x747 JUMPI RETURNDATASIZE PUSH1 0x0 DUP1 RETURNDATACOPY RETURNDATASIZE PUSH1 0x0 REVERT JUMPDEST POP POP POP POP PUSH1 0x40 MLOAD RETURNDATASIZE PUSH1 0x1F NOT PUSH1 0x1F DUP3 ADD AND DUP3 ADD DUP1 PUSH1 0x40 MSTORE POP DUP2 ADD SWAP1 PUSH2 0x76B SWAP2 SWAP1 PUSH2 0x1C5F JUMP JUMPDEST POP DUP3 PUSH1 0x2 PUSH1 0x0 DUP3 DUP3 SLOAD PUSH2 0x77E SWAP2 SWAP1 PUSH2 0x1A84 JUMP JUMPDEST SWAP3 POP POP DUP2 SWAP1 SSTORE POP DUP1 PUSH1 0x3 PUSH1 0x0 DUP3 DUP3 SLOAD PUSH2 0x797 SWAP2 SWAP1 PUSH2 0x1A0E JUMP JUMPDEST SWAP3 POP POP DUP2 SWAP1 SSTORE POP CALLER PUSH20 0xFFFFFFFFFFFFFFFFFFFFFFFFFFFFFFFFFFFFFFFF AND PUSH32 0xCC65E4D9060ECE2ECF63011AC580550B04C8DAEBA63FAC4DFE8669353CD88859 DUP5 DUP4 PUSH1 0x1 PUSH1 0x40 MLOAD PUSH2 0x7E9 SWAP4 SWAP3 SWAP2 SWAP1 PUSH2 0x1CC4 JUMP JUMPDEST PUSH1 0x40 MLOAD DUP1 SWAP2 SUB SWAP1 LOG2 PUSH2 0x7F9 PUSH2 0x128C JUMP JUMPDEST SWAP3 SWAP2 POP POP JUMP JUMPDEST PUSH1 0x2 SLOAD DUP2 JUMP JUMPDEST PUSH1 0x4 SLOAD DUP2 JUMP JUMPDEST PUSH1 0x3 SLOAD DUP2 JUMP JUMPDEST PUSH1 0x0 PUSH2 0x81B PUSH2 0x123D JUMP JUMPDEST PUSH1 0x0 DUP4 GT PUSH2 0x85E JUMPI PUSH1 0x40 MLOAD PUSH32 0x8C379A000000000000000000000000000000000000000000000000000000000 DUP2 MSTORE PUSH1 0x4 ADD PUSH2 0x855 SWAP1 PUSH2 0x1953 JUMP JUMPDEST PUSH1 0x40 MLOAD DUP1 SWAP2 SUB SWAP1 REVERT JUMPDEST PUSH2 0x86D DUP4 PUSH1 0x3 SLOAD PUSH1 0x2 SLOAD PUSH2 0x426 JUMP JUMPDEST SWAP1 POP DUP2 DUP2 LT ISZERO PUSH2 0x8B2 JUMPI PUSH1 0x40 MLOAD PUSH32 0x8C379A000000000000000000000000000000000000000000000000000000000 DUP2 MSTORE PUSH1 0x4 ADD PUSH2 0x8A9 SWAP1 PUSH2 0x1BD0 JUMP JUMPDEST PUSH1 0x40 MLOAD DUP1 SWAP2 SUB SWAP1 REVERT JUMPDEST PUSH32 0x0 PUSH20 0xFFFFFFFFFFFFFFFFFFFFFFFFFFFFFFFFFFFFFFFF AND PUSH4 0x23B872DD CALLER ADDRESS DUP7 PUSH1 0x40 MLOAD DUP5 PUSH4 0xFFFFFFFF AND PUSH1 0xE0 SHL DUP2 MSTORE PUSH1 0x4 ADD PUSH2 0x90F SWAP4 SWAP3 SWAP2 SWAP1 PUSH2 0x1BF0 JUMP JUMPDEST PUSH1 0x20 PUSH1 0x40 MLOAD DUP1 DUP4 SUB DUP2 PUSH1 0x0 DUP8 GAS CALL ISZERO DUP1 ISZERO PUSH2 0x92E JUMPI RETURNDATASIZE PUSH1 0x0 DUP1 RETURNDATACOPY RETURNDATASIZE PUSH1 0x0 REVERT JUMPDEST POP POP POP POP PUSH1 0x40 MLOAD RETURNDATASIZE PUSH1 0x1F NOT PUSH1 0x1F DUP3 ADD AND DUP3 ADD DUP1 PUSH1 0x40 MSTORE POP DUP2 ADD SWAP1 PUSH2 0x952 SWAP2 SWAP1 PUSH2 0x1C5F JUMP JUMPDEST POP PUSH32 0x0 PUSH20 0xFFFFFFFFFFFFFFFFFFFFFFFFFFFFFFFFFFFFFFFF AND PUSH4 0xA9059CBB CALLER DUP4 PUSH1 0x40 MLOAD DUP4 PUSH4 0xFFFFFFFF AND PUSH1 0xE0 SHL DUP2 MSTORE PUSH1 0x4 ADD PUSH2 0x9AE SWAP3 SWAP2 SWAP1 PUSH2 0x1C8C JUMP JUMPDEST PUSH1 0x20 PUSH1 0x40 MLOAD DUP1 DUP4 SUB DUP2 PUSH1 0x0 DUP8 GAS CALL ISZERO DUP1 ISZERO PUSH2 0x9CD JUMPI RETURNDATASIZE PUSH1 0x0 DUP1 RETURNDATACOPY RETURNDATASIZE PUSH1 0x0 REVERT JUMPDEST POP POP POP POP PUSH1 0x40 MLOAD RETURNDATASIZE PUSH1 0x1F NOT PUSH1 0x1F DUP3 ADD AND DUP3 ADD DUP1 PUSH1 0x40 MSTORE POP DUP2 ADD SWAP1 PUSH2 0x9F1 SWAP2 SWAP1 PUSH2 0x1C5F JUMP JUMPDEST POP DUP3 PUSH1 0x3 PUSH1 0x0 DUP3 DUP3 SLOAD PUSH2 0xA04 SWAP2 SWAP1 PUSH2 0x1A84 JUMP JUMPDEST SWAP3 POP POP DUP2 SWAP1 SSTORE POP DUP1 PUSH1 0x2 PUSH1 0x0 DUP3 DUP3 SLOAD PUSH2 0xA1D SWAP2 SWAP1 PUSH2 0x1A0E JUMP JUMPDEST SWAP3 POP POP DUP2 SWAP1 SSTORE POP CALLER PUSH20 0xFFFFFFFFFFFFFFFFFFFFFFFFFFFFFFFFFFFFFFFF AND PUSH32 0xCC65E4D9060ECE2ECF63011AC580550B04C8DAEBA63FAC4DFE8669353CD88859 DUP5 DUP4 PUSH1 0x0 PUSH1 0x40 MLOAD PUSH2 0xA6F SWAP4 SWAP3 SWAP2 SWAP1 PUSH2 0x1CC4 JUMP JUMPDEST PUSH1 0x40 MLOAD DUP1 SWAP2 SUB SWAP1 LOG2 PUSH2 0xA7F PUSH2 0x128C JUMP JUMPDEST SWAP3 SWAP2 POP POP JUMP JUMPDEST PUSH2 0xA8D PUSH2 0x11BF JUMP JUMPDEST PUSH2 0xA97 PUSH1 0x0 PUSH2 0x1296 JUMP JUMPDEST JUMP JUMPDEST PUSH32 0x0 DUP2 JUMP JUMPDEST PUSH1 0x0 PUSH1 0x1 PUSH1 0x0 SWAP1 SLOAD SWAP1 PUSH2 0x100 EXP SWAP1 DIV PUSH20 0xFFFFFFFFFFFFFFFFFFFFFFFFFFFFFFFFFFFFFFFF AND SWAP1 POP SWAP1 JUMP JUMPDEST PUSH1 0x0 DUP1 PUSH2 0xAF2 PUSH2 0x123D JUMP JUMPDEST PUSH1 0x0 DUP4 GT PUSH2 0xB35 JUMPI PUSH1 0x40 MLOAD PUSH32 0x8C379A000000000000000000000000000000000000000000000000000000000 DUP2 MSTORE PUSH1 0x4 ADD PUSH2 0xB2C SWAP1 PUSH2 0x1D47 JUMP JUMPDEST PUSH1 0x40 MLOAD DUP1 SWAP2 SUB SWAP1 REVERT JUMPDEST DUP3 PUSH1 0x5 PUSH1 0x0 CALLER PUSH20 0xFFFFFFFFFFFFFFFFFFFFFFFFFFFFFFFFFFFFFFFF AND PUSH20 0xFFFFFFFFFFFFFFFFFFFFFFFFFFFFFFFFFFFFFFFF AND DUP2 MSTORE PUSH1 0x20 ADD SWAP1 DUP2 MSTORE PUSH1 0x20 ADD PUSH1 0x0 KECCAK256 SLOAD LT ISZERO PUSH2 0xBB7 JUMPI PUSH1 0x40 MLOAD PUSH32 0x8C379A000000000000000000000000000000000000000000000000000000000 DUP2 MSTORE PUSH1 0x4 ADD PUSH2 0xBAE SWAP1 PUSH2 0x1DB3 JUMP JUMPDEST PUSH1 0x40 MLOAD DUP1 SWAP2 SUB SWAP1 REVERT JUMPDEST PUSH1 0x6 SLOAD PUSH1 0x2 SLOAD DUP5 PUSH2 0xBC8 SWAP2 SWAP1 PUSH2 0x1A42 JUMP JUMPDEST PUSH2 0xBD2 SWAP2 SWAP1 PUSH2 0x1AE7 JUMP JUMPDEST SWAP2 POP PUSH1 0x6 SLOAD PUSH1 0x3 SLOAD DUP5 PUSH2 0xBE5 SWAP2 SWAP1 PUSH2 0x1A42 JUMP JUMPDEST PUSH2 0xBEF SWAP2 SWAP1 PUSH2 0x1AE7 JUMP JUMPDEST SWAP1 POP PUSH1 0x0 DUP3 GT DUP1 ISZERO PUSH2 0xC01 JUMPI POP PUSH1 0x0 DUP2 GT JUMPDEST PUSH2 0xC40 JUMPI PUSH1 0x40 MLOAD PUSH32 0x8C379A000000000000000000000000000000000000000000000000000000000 DUP2 MSTORE PUSH1 0x4 ADD PUSH2 0xC37 SWAP1 PUSH2 0x19BF JUMP JUMPDEST PUSH1 0x40 MLOAD DUP1 SWAP2 SUB SWAP1 REVERT JUMPDEST PUSH2 0xC4A CALLER DUP5 PUSH2 0x135C JUMP JUMPDEST DUP2 PUSH1 0x2 PUSH1 0x0 DUP3 DUP3 SLOAD PUSH2 0xC5C SWAP2 SWAP1 PUSH2 0x1A0E JUMP JUMPDEST SWAP3 POP POP DUP2 SWAP1 SSTORE POP DUP1 PUSH1 0x3 PUSH1 0x0 DUP3 DUP3 SLOAD PUSH2 0xC75 SWAP2 SWAP1 PUSH2 0x1A0E JUMP JUMPDEST SWAP3 POP POP DUP2 SWAP1 SSTORE POP PUSH32 0x0 PUSH20 0xFFFFFFFFFFFFFFFFFFFFFFFFFFFFFFFFFFFFFFFF AND PUSH4 0xA9059CBB CALLER DUP4 PUSH1 0x40 MLOAD DUP4 PUSH4 0xFFFFFFFF AND PUSH1 0xE0 SHL DUP2 MSTORE PUSH1 0x4 ADD PUSH2 0xCD7 SWAP3 SWAP2 SWAP1 PUSH2 0x1C8C JUMP JUMPDEST PUSH1 0x20 PUSH1 0x40 MLOAD DUP1 DUP4 SUB DUP2 PUSH1 0x0 DUP8 GAS CALL ISZERO DUP1 ISZERO PUSH2 0xCF6 JUMPI RETURNDATASIZE PUSH1 0x0 DUP1 RETURNDATACOPY RETURNDATASIZE PUSH1 0x0 REVERT JUMPDEST POP POP POP POP PUSH1 0x40 MLOAD RETURNDATASIZE PUSH1 0x1F NOT PUSH1 0x1F DUP3 ADD AND DUP3 ADD DUP1 PUSH1 0x40 MSTORE POP DUP2 ADD SWAP1 PUSH2 0xD1A SWAP2 SWAP1 PUSH2 0x1C5F JUMP JUMPDEST POP CALLER PUSH20 0xFFFFFFFFFFFFFFFFFFFFFFFFFFFFFFFFFFFFFFFF AND PUSH32 0x59C3A0B60C6AB7DEB62E1440C9E72441DB6DB7DFE514DBA8CB18E60C0D896EFA DUP4 DUP4 DUP7 PUSH1 0x40 MLOAD PUSH2 0xD65 SWAP4 SWAP3 SWAP2 SWAP1 PUSH2 0x1DD3 JUMP JUMPDEST PUSH1 0x40 MLOAD DUP1 SWAP2 SUB SWAP1 LOG2 PUSH2 0xD75 PUSH2 0x128C JUMP JUMPDEST SWAP2 POP SWAP2 JUMP JUMPDEST PUSH32 0x0 DUP2 JUMP JUMPDEST PUSH2 0x3E8 DUP2 JUMP JUMPDEST PUSH1 0x0 PUSH2 0xDAE PUSH2 0x123D JUMP JUMPDEST PUSH1 0x0 CALLVALUE GT DUP1 ISZERO PUSH2 0xDBE JUMPI POP PUSH1 0x0 DUP3 GT JUMPDEST PUSH2 0xDFD JUMPI PUSH1 0x40 MLOAD PUSH32 0x8C379A000000000000000000000000000000000000000000000000000000000 DUP2 MSTORE PUSH1 0x4 ADD PUSH2 0xDF4 SWAP1 PUSH2 0x1E56 JUMP JUMPDEST PUSH1 0x40 MLOAD DUP1 SWAP2 SUB SWAP1 REVERT JUMPDEST PUSH32 0x0 PUSH20 0xFFFFFFFFFFFFFFFFFFFFFFFFFFFFFFFFFFFFFFFF AND PUSH4 0xD0E30DB0 CALLVALUE PUSH1 0x40 MLOAD DUP3 PUSH4 0xFFFFFFFF AND PUSH1 0xE0 SHL DUP2 MSTORE PUSH1 0x4 ADD PUSH1 0x0 PUSH1 0x40 MLOAD DUP1 DUP4 SUB DUP2 DUP6 DUP9 DUP1 EXTCODESIZE ISZERO DUP1 ISZERO PUSH2 0xE65 JUMPI PUSH1 0x0 DUP1 REVERT JUMPDEST POP GAS CALL ISZERO DUP1 ISZERO PUSH2 0xE79 JUMPI RETURNDATASIZE PUSH1 0x0 DUP1 RETURNDATACOPY RETURNDATASIZE PUSH1 0x0 REVERT JUMPDEST POP POP POP POP POP PUSH1 0x0 CALLVALUE SWAP1 POP PUSH1 0x0 DUP1 PUSH1 0x2 SLOAD EQ DUP1 ISZERO PUSH2 0xE98 JUMPI POP PUSH1 0x0 PUSH1 0x3 SLOAD EQ JUMPDEST ISZERO PUSH2 0xED5 JUMPI DUP4 SWAP1 POP PUSH2 0x3E8 PUSH2 0xEB7 DUP3 DUP5 PUSH2 0xEB2 SWAP2 SWAP1 PUSH2 0x1A42 JUMP JUMPDEST PUSH2 0x13CF JUMP JUMPDEST PUSH2 0xEC1 SWAP2 SWAP1 PUSH2 0x1A0E JUMP JUMPDEST SWAP3 POP PUSH2 0xED0 PUSH1 0x0 PUSH2 0x3E8 PUSH2 0x14C8 JUMP JUMPDEST PUSH2 0xFB5 JUMP JUMPDEST PUSH1 0x2 SLOAD PUSH1 0x3 SLOAD DUP4 PUSH2 0xEE6 SWAP2 SWAP1 PUSH2 0x1A42 JUMP JUMPDEST PUSH2 0xEF0 SWAP2 SWAP1 PUSH2 0x1AE7 JUMP JUMPDEST SWAP1 POP DUP4 DUP2 GT PUSH2 0xF01 JUMPI CALLVALUE SWAP2 POP PUSH2 0xF74 JUMP JUMPDEST PUSH1 0x3 SLOAD PUSH1 0x2 SLOAD DUP6 PUSH2 0xF12 SWAP2 SWAP1 PUSH2 0x1A42 JUMP JUMPDEST PUSH2 0xF1C SWAP2 SWAP1 PUSH2 0x1AE7 JUMP JUMPDEST SWAP2 POP DUP4 SWAP1 POP CALLER PUSH20 0xFFFFFFFFFFFFFFFFFFFFFFFFFFFFFFFFFFFFFFFF AND PUSH2 0x8FC DUP4 CALLVALUE PUSH2 0xF47 SWAP2 SWAP1 PUSH2 0x1A0E JUMP JUMPDEST SWAP1 DUP2 ISZERO MUL SWAP1 PUSH1 0x40 MLOAD PUSH1 0x0 PUSH1 0x40 MLOAD DUP1 DUP4 SUB DUP2 DUP6 DUP9 DUP9 CALL SWAP4 POP POP POP POP ISZERO DUP1 ISZERO PUSH2 0xF72 JUMPI RETURNDATASIZE PUSH1 0x0 DUP1 RETURNDATACOPY RETURNDATASIZE PUSH1 0x0 REVERT JUMPDEST POP JUMPDEST PUSH2 0xFB2 PUSH1 0x2 SLOAD PUSH1 0x6 SLOAD DUP5 PUSH2 0xF88 SWAP2 SWAP1 PUSH2 0x1A42 JUMP JUMPDEST PUSH2 0xF92 SWAP2 SWAP1 PUSH2 0x1AE7 JUMP JUMPDEST PUSH1 0x3 SLOAD PUSH1 0x6 SLOAD DUP5 PUSH2 0xFA3 SWAP2 SWAP1 PUSH2 0x1A42 JUMP JUMPDEST PUSH2 0xFAD SWAP2 SWAP1 PUSH2 0x1AE7 JUMP JUMPDEST PUSH2 0x153B JUMP JUMPDEST SWAP3 POP JUMPDEST PUSH1 0x0 DUP4 GT PUSH2 0xFF8 JUMPI PUSH1 0x40 MLOAD PUSH32 0x8C379A000000000000000000000000000000000000000000000000000000000 DUP2 MSTORE PUSH1 0x4 ADD PUSH2 0xFEF SWAP1 PUSH2 0x1EC2 JUMP JUMPDEST PUSH1 0x40 MLOAD DUP1 SWAP2 SUB SWAP1 REVERT JUMPDEST PUSH32 0x0 PUSH20 0xFFFFFFFFFFFFFFFFFFFFFFFFFFFFFFFFFFFFFFFF AND PUSH4 0x23B872DD CALLER ADDRESS DUP5 PUSH1 0x40 MLOAD DUP5 PUSH4 0xFFFFFFFF AND PUSH1 0xE0 SHL DUP2 MSTORE PUSH1 0x4 ADD PUSH2 0x1055 SWAP4 SWAP3 SWAP2 SWAP1 PUSH2 0x1BF0 JUMP JUMPDEST PUSH1 0x20 PUSH1 0x40 MLOAD DUP1 DUP4 SUB DUP2 PUSH1 0x0 DUP8 GAS CALL ISZERO DUP1 ISZERO PUSH2 0x1074 JUMPI RETURNDATASIZE PUSH1 0x0 DUP1 RETURNDATACOPY RETURNDATASIZE PUSH1 0x0 REVERT JUMPDEST POP POP POP POP PUSH1 0x40 MLOAD RETURNDATASIZE PUSH1 0x1F NOT PUSH1 0x1F DUP3 ADD AND DUP3 ADD DUP1 PUSH1 0x40 MSTORE POP DUP2 ADD SWAP1 PUSH2 0x1098 SWAP2 SWAP1 PUSH2 0x1C5F JUMP JUMPDEST POP DUP2 PUSH1 0x2 PUSH1 0x0 DUP3 DUP3 SLOAD PUSH2 0x10AB SWAP2 SWAP1 PUSH2 0x1A84 JUMP JUMPDEST SWAP3 POP POP DUP2 SWAP1 SSTORE POP DUP1 PUSH1 0x3 PUSH1 0x0 DUP3 DUP3 SLOAD PUSH2 0x10C4 SWAP2 SWAP1 PUSH2 0x1A84 JUMP JUMPDEST SWAP3 POP POP DUP2 SWAP1 SSTORE POP PUSH2 0x10D5 CALLER DUP5 PUSH2 0x14C8 JUMP JUMPDEST CALLER PUSH20 0xFFFFFFFFFFFFFFFFFFFFFFFFFFFFFFFFFFFFFFFF AND PUSH32 0xBEB3885786D637A474CBC287C0A44587231633A077F0BD30354D5A4B18996FCE DUP4 DUP4 DUP7 PUSH1 0x40 MLOAD PUSH2 0x111F SWAP4 SWAP3 SWAP2 SWAP1 PUSH2 0x1DD3 JUMP JUMPDEST PUSH1 0x40 MLOAD DUP1 SWAP2 SUB SWAP1 LOG2 POP POP PUSH2 0x1131 PUSH2 0x128C JUMP JUMPDEST SWAP2 SWAP1 POP JUMP JUMPDEST PUSH1 0x6 SLOAD DUP2 JUMP JUMPDEST PUSH2 0x1144 PUSH2 0x11BF JUMP JUMPDEST PUSH1 0x0 PUSH20 0xFFFFFFFFFFFFFFFFFFFFFFFFFFFFFFFFFFFFFFFF AND DUP2 PUSH20 0xFFFFFFFFFFFFFFFFFFFFFFFFFFFFFFFFFFFFFFFF AND SUB PUSH2 0x11B3 JUMPI PUSH1 0x40 MLOAD PUSH32 0x8C379A000000000000000000000000000000000000000000000000000000000 DUP2 MSTORE PUSH1 0x4 ADD PUSH2 0x11AA SWAP1 PUSH2 0x1F54 JUMP JUMPDEST PUSH1 0x40 MLOAD DUP1 SWAP2 SUB SWAP1 REVERT JUMPDEST PUSH2 0x11BC DUP2 PUSH2 0x1296 JUMP JUMPDEST POP JUMP JUMPDEST PUSH2 0x11C7 PUSH2 0x1554 JUMP JUMPDEST PUSH20 0xFFFFFFFFFFFFFFFFFFFFFFFFFFFFFFFFFFFFFFFF AND PUSH2 0x11E5 PUSH2 0xABD JUMP JUMPDEST PUSH20 0xFFFFFFFFFFFFFFFFFFFFFFFFFFFFFFFFFFFFFFFF AND EQ PUSH2 0x123B JUMPI PUSH1 0x40 MLOAD PUSH32 0x8C379A000000000000000000000000000000000000000000000000000000000 DUP2 MSTORE PUSH1 0x4 ADD PUSH2 0x1232 SWAP1 PUSH2 0x1FC0 JUMP JUMPDEST PUSH1 0x40 MLOAD DUP1 SWAP2 SUB SWAP1 REVERT JUMPDEST JUMP JUMPDEST PUSH1 0x2 PUSH1 0x0 SLOAD SUB PUSH2 0x1282 JUMPI PUSH1 0x40 MLOAD PUSH32 0x8C379A000000000000000000000000000000000000000000000000000000000 DUP2 MSTORE PUSH1 0x4 ADD PUSH2 0x1279 SWAP1 PUSH2 0x202C JUMP JUMPDEST PUSH1 0x40 MLOAD DUP1 SWAP2 SUB SWAP1 REVERT JUMPDEST PUSH1 0x2 PUSH1 0x0 DUP2 SWAP1 SSTORE POP JUMP JUMPDEST PUSH1 0x1 PUSH1 0x0 DUP2 SWAP1 SSTORE POP JUMP JUMPDEST PUSH1 0x0 PUSH1 0x1 PUSH1 0x0 SWAP1 SLOAD SWAP1 PUSH2 0x100 EXP SWAP1 DIV PUSH20 0xFFFFFFFFFFFFFFFFFFFFFFFFFFFFFFFFFFFFFFFF AND SWAP1 POP DUP2 PUSH1 0x1 PUSH1 0x0 PUSH2 0x100 EXP DUP2 SLOAD DUP2 PUSH20 0xFFFFFFFFFFFFFFFFFFFFFFFFFFFFFFFFFFFFFFFF MUL NOT AND SWAP1 DUP4 PUSH20 0xFFFFFFFFFFFFFFFFFFFFFFFFFFFFFFFFFFFFFFFF AND MUL OR SWAP1 SSTORE POP DUP2 PUSH20 0xFFFFFFFFFFFFFFFFFFFFFFFFFFFFFFFFFFFFFFFF AND DUP2 PUSH20 0xFFFFFFFFFFFFFFFFFFFFFFFFFFFFFFFFFFFFFFFF AND PUSH32 0x8BE0079C531659141344CD1FD0A4F28419497F9722A3DAAFE3B4186F6B6457E0 PUSH1 0x40 MLOAD PUSH1 0x40 MLOAD DUP1 SWAP2 SUB SWAP1 LOG3 POP POP JUMP JUMPDEST DUP1 PUSH1 0x5 PUSH1 0x0 DUP5 PUSH20 0xFFFFFFFFFFFFFFFFFFFFFFFFFFFFFFFFFFFFFFFF AND PUSH20 0xFFFFFFFFFFFFFFFFFFFFFFFFFFFFFFFFFFFFFFFF AND DUP2 MSTORE PUSH1 0x20 ADD SWAP1 DUP2 MSTORE PUSH1 0x20 ADD PUSH1 0x0 KECCAK256 PUSH1 0x0 DUP3 DUP3 SLOAD PUSH2 0x13AB SWAP2 SWAP1 PUSH2 0x1A0E JUMP JUMPDEST SWAP3 POP POP DUP2 SWAP1 SSTORE POP DUP1 PUSH1 0x6 PUSH1 0x0 DUP3 DUP3 SLOAD PUSH2 0x13C4 SWAP2 SWAP1 PUSH2 0x1A0E JUMP JUMPDEST SWAP3 POP POP DUP2 SWAP1 SSTORE POP POP POP JUMP JUMPDEST PUSH1 0x0 DUP1 DUP3 SUB PUSH2 0x13E1 JUMPI PUSH1 0x0 SWAP1 POP PUSH2 0x14C3 JUMP JUMPDEST PUSH1 0x0 PUSH1 0x1 PUSH2 0x13EE DUP5 PUSH2 0x155C JUMP JUMPDEST SWAP1 SHR PUSH1 0x1 SWAP1 SHL SWAP1 POP PUSH1 0x1 DUP2 DUP5 DUP2 PUSH2 0x1408 JUMPI PUSH2 0x1407 PUSH2 0x1AB8 JUMP JUMPDEST JUMPDEST DIV DUP3 ADD SWAP1 SHR SWAP1 POP PUSH1 0x1 DUP2 DUP5 DUP2 PUSH2 0x1421 JUMPI PUSH2 0x1420 PUSH2 0x1AB8 JUMP JUMPDEST JUMPDEST DIV DUP3 ADD SWAP1 SHR SWAP1 POP PUSH1 0x1 DUP2 DUP5 DUP2 PUSH2 0x143A JUMPI PUSH2 0x1439 PUSH2 0x1AB8 JUMP JUMPDEST JUMPDEST DIV DUP3 ADD SWAP1 SHR SWAP1 POP PUSH1 0x1 DUP2 DUP5 DUP2 PUSH2 0x1453 JUMPI PUSH2 0x1452 PUSH2 0x1AB8 JUMP JUMPDEST JUMPDEST DIV DUP3 ADD SWAP1 SHR SWAP1 POP PUSH1 0x1 DUP2 DUP5 DUP2 PUSH2 0x146C JUMPI PUSH2 0x146B PUSH2 0x1AB8 JUMP JUMPDEST JUMPDEST DIV DUP3 ADD SWAP1 SHR SWAP1 POP PUSH1 0x1 DUP2 DUP5 DUP2 PUSH2 0x1485 JUMPI PUSH2 0x1484 PUSH2 0x1AB8 JUMP JUMPDEST JUMPDEST DIV DUP3 ADD SWAP1 SHR SWAP1 POP PUSH1 0x1 DUP2 DUP5 DUP2 PUSH2 0x149E JUMPI PUSH2 0x149D PUSH2 0x1AB8 JUMP JUMPDEST JUMPDEST DIV DUP3 ADD SWAP1 SHR SWAP1 POP PUSH2 0x14BF DUP2 DUP3 DUP6 DUP2 PUSH2 0x14B9 JUMPI PUSH2 0x14B8 PUSH2 0x1AB8 JUMP JUMPDEST JUMPDEST DIV PUSH2 0x153B JUMP JUMPDEST SWAP2 POP POP JUMPDEST SWAP2 SWAP1 POP JUMP JUMPDEST DUP1 PUSH1 0x5 PUSH1 0x0 DUP5 PUSH20 0xFFFFFFFFFFFFFFFFFFFFFFFFFFFFFFFFFFFFFFFF AND PUSH20 0xFFFFFFFFFFFFFFFFFFFFFFFFFFFFFFFFFFFFFFFF AND DUP2 MSTORE PUSH1 0x20 ADD SWAP1 DUP2 MSTORE PUSH1 0x20 ADD PUSH1 0x0 KECCAK256 PUSH1 0x0 DUP3 DUP3 SLOAD PUSH2 0x1517 SWAP2 SWAP1 PUSH2 0x1A84 JUMP JUMPDEST SWAP3 POP POP DUP2 SWAP1 SSTORE POP DUP1 PUSH1 0x6 PUSH1 0x0 DUP3 DUP3 SLOAD PUSH2 0x1530 SWAP2 SWAP1 PUSH2 0x1A84 JUMP JUMPDEST SWAP3 POP POP DUP2 SWAP1 SSTORE POP POP POP JUMP JUMPDEST PUSH1 0x0 DUP2 DUP4 LT PUSH2 0x154A JUMPI DUP2 PUSH2 0x154C JUMP JUMPDEST DUP3 JUMPDEST SWAP1 POP SWAP3 SWAP2 POP POP JUMP JUMPDEST PUSH1 0x0 CALLER SWAP1 POP SWAP1 JUMP JUMPDEST PUSH1 0x0 DUP1 PUSH1 0x0 SWAP1 POP PUSH1 0x0 PUSH1 0x80 DUP5 SWAP1 SHR GT ISZERO PUSH2 0x157E JUMPI PUSH1 0x80 DUP4 SWAP1 SHR SWAP3 POP PUSH1 0x80 DUP2 ADD SWAP1 POP JUMPDEST PUSH1 0x0 PUSH1 0x40 DUP5 SWAP1 SHR GT ISZERO PUSH2 0x1599 JUMPI PUSH1 0x40 DUP4 SWAP1 SHR SWAP3 POP PUSH1 0x40 DUP2 ADD SWAP1 POP JUMPDEST PUSH1 0x0 PUSH1 0x20 DUP5 SWAP1 SHR GT ISZERO PUSH2 0x15B4 JUMPI PUSH1 0x20 DUP4 SWAP1 SHR SWAP3 POP PUSH1 0x20 DUP2 ADD SWAP1 POP JUMPDEST PUSH1 0x0 PUSH1 0x10 DUP5 SWAP1 SHR GT ISZERO PUSH2 0x15CF JUMPI PUSH1 0x10 DUP4 SWAP1 SHR SWAP3 POP PUSH1 0x10 DUP2 ADD SWAP1 POP JUMPDEST PUSH1 0x0 PUSH1 0x8 DUP5 SWAP1 SHR GT ISZERO PUSH2 0x15EA JUMPI PUSH1 0x8 DUP4 SWAP1 SHR SWAP3 POP PUSH1 0x8 DUP2 ADD SWAP1 POP JUMPDEST PUSH1 0x0 PUSH1 0x4 DUP5 SWAP1 SHR GT ISZERO PUSH2 0x1605 JUMPI PUSH1 0x4 DUP4 SWAP1 SHR SWAP3 POP PUSH1 0x4 DUP2 ADD SWAP1 POP JUMPDEST PUSH1 0x0 PUSH1 0x2 DUP5 SWAP1 SHR GT ISZERO PUSH2 0x1620 JUMPI PUSH1 0x2 DUP4 SWAP1 SHR SWAP3 POP PUSH1 0x2 DUP2 ADD SWAP1 POP JUMPDEST PUSH1 0x0 PUSH1 0x1 DUP5 SWAP1 SHR GT ISZERO PUSH2 0x1634 JUMPI PUSH1 0x1 DUP2 ADD SWAP1 POP JUMPDEST DUP1 SWAP2 POP POP SWAP2 SWAP1 POP JUMP JUMPDEST PUSH1 0x0 DUP1 REVERT JUMPDEST PUSH1 0x0 DUP2 SWAP1 POP SWAP2 SWAP1 POP JUMP JUMPDEST PUSH2 0x1655 DUP2 PUSH2 0x1642 JUMP JUMPDEST DUP2 EQ PUSH2 0x1660 JUMPI PUSH1 0x0 DUP1 REVERT JUMPDEST POP JUMP JUMPDEST PUSH1 0x0 DUP2 CALLDATALOAD SWAP1 POP PUSH2 0x1672 DUP2 PUSH2 0x164C JUMP JUMPDEST SWAP3 SWAP2 POP POP JUMP JUMPDEST PUSH1 0x0 DUP1 PUSH1 0x0 PUSH1 0x60 DUP5 DUP7 SUB SLT ISZERO PUSH2 0x1691 JUMPI PUSH2 0x1690 PUSH2 0x163D JUMP JUMPDEST JUMPDEST PUSH1 0x0 PUSH2 0x169F DUP7 DUP3 DUP8 ADD PUSH2 0x1663 JUMP JUMPDEST SWAP4 POP POP PUSH1 0x20 PUSH2 0x16B0 DUP7 DUP3 DUP8 ADD PUSH2 0x1663 JUMP JUMPDEST SWAP3 POP POP PUSH1 0x40 PUSH2 0x16C1 DUP7 DUP3 DUP8 ADD PUSH2 0x1663 JUMP JUMPDEST SWAP2 POP POP SWAP3 POP SWAP3 POP SWAP3 JUMP JUMPDEST PUSH2 0x16D4 DUP2 PUSH2 0x1642 JUMP JUMPDEST DUP3 MSTORE POP POP JUMP JUMPDEST PUSH1 0x0 PUSH1 0x20 DUP3 ADD SWAP1 POP PUSH2 0x16EF PUSH1 0x0 DUP4 ADD DUP5 PUSH2 0x16CB JUMP JUMPDEST SWAP3 SWAP2 POP POP JUMP JUMPDEST PUSH1 0x0 PUSH20 0xFFFFFFFFFFFFFFFFFFFFFFFFFFFFFFFFFFFFFFFF DUP3 AND SWAP1 POP SWAP2 SWAP1 POP JUMP JUMPDEST PUSH1 0x0 PUSH2 0x1720 DUP3 PUSH2 0x16F5 JUMP JUMPDEST SWAP1 POP SWAP2 SWAP1 POP JUMP JUMPDEST PUSH2 0x1730 DUP2 PUSH2 0x1715 JUMP JUMPDEST DUP2 EQ PUSH2 0x173B JUMPI PUSH1 0x0 DUP1 REVERT JUMPDEST POP JUMP JUMPDEST PUSH1 0x0 DUP2 CALLDATALOAD SWAP1 POP PUSH2 0x174D DUP2 PUSH2 0x1727 JUMP JUMPDEST SWAP3 SWAP2 POP POP JUMP JUMPDEST PUSH1 0x0 PUSH1 0x20 DUP3 DUP5 SUB SLT ISZERO PUSH2 0x1769 JUMPI PUSH2 0x1768 PUSH2 0x163D JUMP JUMPDEST JUMPDEST PUSH1 0x0 PUSH2 0x1777 DUP5 DUP3 DUP6 ADD PUSH2 0x173E JUMP JUMPDEST SWAP2 POP POP SWAP3 SWAP2 POP POP JUMP JUMPDEST PUSH1 0x0 PUSH1 0x20 DUP3 DUP5 SUB SLT ISZERO PUSH2 0x1796 JUMPI PUSH2 0x1795 PUSH2 0x163D JUMP JUMPDEST JUMPDEST PUSH1 0x0 PUSH2 0x17A4 DUP5 DUP3 DUP6 ADD PUSH2 0x1663 JUMP JUMPDEST SWAP2 POP POP SWAP3 SWAP2 POP POP JUMP JUMPDEST PUSH1 0x0 DUP1 PUSH1 0x40 DUP4 DUP6 SUB SLT ISZERO PUSH2 0x17C4 JUMPI PUSH2 0x17C3 PUSH2 0x163D JUMP JUMPDEST JUMPDEST PUSH1 0x0 PUSH2 0x17D2 DUP6 DUP3 DUP7 ADD PUSH2 0x1663 JUMP JUMPDEST SWAP3 POP POP PUSH1 0x20 PUSH2 0x17E3 DUP6 DUP3 DUP7 ADD PUSH2 0x1663 JUMP JUMPDEST SWAP2 POP POP SWAP3 POP SWAP3 SWAP1 POP JUMP JUMPDEST PUSH1 0x0 DUP2 SWAP1 POP SWAP2 SWAP1 POP JUMP JUMPDEST PUSH1 0x0 PUSH2 0x1812 PUSH2 0x180D PUSH2 0x1808 DUP5 PUSH2 0x16F5 JUMP JUMPDEST PUSH2 0x17ED JUMP JUMPDEST PUSH2 0x16F5 JUMP JUMPDEST SWAP1 POP SWAP2 SWAP1 POP JUMP JUMPDEST PUSH1 0x0 PUSH2 0x1824 DUP3 PUSH2 0x17F7 JUMP JUMPDEST SWAP1 POP SWAP2 SWAP1 POP JUMP JUMPDEST PUSH1 0x0 PUSH2 0x1836 DUP3 PUSH2 0x1819 JUMP JUMPDEST SWAP1 POP SWAP2 SWAP1 POP JUMP JUMPDEST PUSH2 0x1846 DUP2 PUSH2 0x182B JUMP JUMPDEST DUP3 MSTORE POP POP JUMP JUMPDEST PUSH1 0x0 PUSH1 0x20 DUP3 ADD SWAP1 POP PUSH2 0x1861 PUSH1 0x0 DUP4 ADD DUP5 PUSH2 0x183D JUMP JUMPDEST SWAP3 SWAP2 POP POP JUMP JUMPDEST PUSH2 0x1870 DUP2 PUSH2 0x1715 JUMP JUMPDEST DUP3 MSTORE POP POP JUMP JUMPDEST PUSH1 0x0 PUSH1 0x20 DUP3 ADD SWAP1 POP PUSH2 0x188B PUSH1 0x0 DUP4 ADD DUP5 PUSH2 0x1867 JUMP JUMPDEST SWAP3 SWAP2 POP POP JUMP JUMPDEST PUSH1 0x0 PUSH1 0x40 DUP3 ADD SWAP1 POP PUSH2 0x18A6 PUSH1 0x0 DUP4 ADD DUP6 PUSH2 0x16CB JUMP JUMPDEST PUSH2 0x18B3 PUSH1 0x20 DUP4 ADD DUP5 PUSH2 0x16CB JUMP JUMPDEST SWAP4 SWAP3 POP POP POP JUMP JUMPDEST PUSH1 0x0 PUSH2 0x18C5 DUP3 PUSH2 0x1819 JUMP JUMPDEST SWAP1 POP SWAP2 SWAP1 POP JUMP JUMPDEST PUSH2 0x18D5 DUP2 PUSH2 0x18BA JUMP JUMPDEST DUP3 MSTORE POP POP JUMP JUMPDEST PUSH1 0x0 PUSH1 0x20 DUP3 ADD SWAP1 POP PUSH2 0x18F0 PUSH1 0x0 DUP4 ADD DUP5 PUSH2 0x18CC JUMP JUMPDEST SWAP3 SWAP2 POP POP JUMP JUMPDEST PUSH1 0x0 DUP3 DUP3 MSTORE PUSH1 0x20 DUP3 ADD SWAP1 POP SWAP3 SWAP2 POP POP JUMP JUMPDEST PUSH32 0x496E76616C696420696E70757420616D6F756E74000000000000000000000000 PUSH1 0x0 DUP3 ADD MSTORE POP JUMP JUMPDEST PUSH1 0x0 PUSH2 0x193D PUSH1 0x14 DUP4 PUSH2 0x18F6 JUMP JUMPDEST SWAP2 POP PUSH2 0x1948 DUP3 PUSH2 0x1907 JUMP JUMPDEST PUSH1 0x20 DUP3 ADD SWAP1 POP SWAP2 SWAP1 POP JUMP JUMPDEST PUSH1 0x0 PUSH1 0x20 DUP3 ADD SWAP1 POP DUP2 DUP2 SUB PUSH1 0x0 DUP4 ADD MSTORE PUSH2 0x196C DUP2 PUSH2 0x1930 JUMP JUMPDEST SWAP1 POP SWAP2 SWAP1 POP JUMP JUMPDEST PUSH32 0x496E73756666696369656E74206C697175696469747900000000000000000000 PUSH1 0x0 DUP3 ADD MSTORE POP JUMP JUMPDEST PUSH1 0x0 PUSH2 0x19A9 PUSH1 0x16 DUP4 PUSH2 0x18F6 JUMP JUMPDEST SWAP2 POP PUSH2 0x19B4 DUP3 PUSH2 0x1973 JUMP JUMPDEST PUSH1 0x20 DUP3 ADD SWAP1 POP SWAP2 SWAP1 POP JUMP JUMPDEST PUSH1 0x0 PUSH1 0x20 DUP3 ADD SWAP1 POP DUP2 DUP2 SUB PUSH1 0x0 DUP4 ADD MSTORE PUSH2 0x19D8 DUP2 PUSH2 0x199C JUMP JUMPDEST SWAP1 POP SWAP2 SWAP1 POP JUMP JUMPDEST PUSH32 0x4E487B7100000000000000000000000000000000000000000000000000000000 PUSH1 0x0 MSTORE PUSH1 0x11 PUSH1 0x4 MSTORE PUSH1 0x24 PUSH1 0x0 REVERT JUMPDEST PUSH1 0x0 PUSH2 0x1A19 DUP3 PUSH2 0x1642 JUMP JUMPDEST SWAP2 POP PUSH2 0x1A24 DUP4 PUSH2 0x1642 JUMP JUMPDEST SWAP3 POP DUP3 DUP3 SUB SWAP1 POP DUP2 DUP2 GT ISZERO PUSH2 0x1A3C JUMPI PUSH2 0x1A3B PUSH2 0x19DF JUMP JUMPDEST JUMPDEST SWAP3 SWAP2 POP POP JUMP JUMPDEST PUSH1 0x0 PUSH2 0x1A4D DUP3 PUSH2 0x1642 JUMP JUMPDEST SWAP2 POP PUSH2 0x1A58 DUP4 PUSH2 0x1642 JUMP JUMPDEST SWAP3 POP DUP3 DUP3 MUL PUSH2 0x1A66 DUP2 PUSH2 0x1642 JUMP JUMPDEST SWAP2 POP DUP3 DUP3 DIV DUP5 EQ DUP4 ISZERO OR PUSH2 0x1A7D JUMPI PUSH2 0x1A7C PUSH2 0x19DF JUMP JUMPDEST JUMPDEST POP SWAP3 SWAP2 POP POP JUMP JUMPDEST PUSH1 0x0 PUSH2 0x1A8F DUP3 PUSH2 0x1642 JUMP JUMPDEST SWAP2 POP PUSH2 0x1A9A DUP4 PUSH2 0x1642 JUMP JUMPDEST SWAP3 POP DUP3 DUP3 ADD SWAP1 POP DUP1 DUP3 GT ISZERO PUSH2 0x1AB2 JUMPI PUSH2 0x1AB1 PUSH2 0x19DF JUMP JUMPDEST JUMPDEST SWAP3 SWAP2 POP POP JUMP JUMPDEST PUSH32 0x4E487B7100000000000000000000000000000000000000000000000000000000 PUSH1 0x0 MSTORE PUSH1 0x12 PUSH1 0x4 MSTORE PUSH1 0x24 PUSH1 0x0 REVERT JUMPDEST PUSH1 0x0 PUSH2 0x1AF2 DUP3 PUSH2 0x1642 JUMP JUMPDEST SWAP2 POP PUSH2 0x1AFD DUP4 PUSH2 0x1642 JUMP JUMPDEST SWAP3 POP DUP3 PUSH2 0x1B0D JUMPI PUSH2 0x1B0C PUSH2 0x1AB8 JUMP JUMPDEST JUMPDEST DUP3 DUP3 DIV SWAP1 POP SWAP3 SWAP2 POP POP JUMP JUMPDEST PUSH32 0x46656520746F6F20686967680000000000000000000000000000000000000000 PUSH1 0x0 DUP3 ADD MSTORE POP JUMP JUMPDEST PUSH1 0x0 PUSH2 0x1B4E PUSH1 0xC DUP4 PUSH2 0x18F6 JUMP JUMPDEST SWAP2 POP PUSH2 0x1B59 DUP3 PUSH2 0x1B18 JUMP JUMPDEST PUSH1 0x20 DUP3 ADD SWAP1 POP SWAP2 SWAP1 POP JUMP JUMPDEST PUSH1 0x0 PUSH1 0x20 DUP3 ADD SWAP1 POP DUP2 DUP2 SUB PUSH1 0x0 DUP4 ADD MSTORE PUSH2 0x1B7D DUP2 PUSH2 0x1B41 JUMP JUMPDEST SWAP1 POP SWAP2 SWAP1 POP JUMP JUMPDEST PUSH32 0x496E73756666696369656E74206F757470757420616D6F756E74000000000000 PUSH1 0x0 DUP3 ADD MSTORE POP JUMP JUMPDEST PUSH1 0x0 PUSH2 0x1BBA PUSH1 0x1A DUP4 PUSH2 0x18F6 JUMP JUMPDEST SWAP2 POP PUSH2 0x1BC5 DUP3 PUSH2 0x1B84 JUMP JUMPDEST PUSH1 0x20 DUP3 ADD SWAP1 POP SWAP2 SWAP1 POP JUMP JUMPDEST PUSH1 0x0 PUSH1 0x20 DUP3 ADD SWAP1 POP DUP2 DUP2 SUB PUSH1 0x0 DUP4 ADD MSTORE PUSH2 0x1BE9 DUP2 PUSH2 0x1BAD JUMP JUMPDEST SWAP1 POP SWAP2 SWAP1 POP JUMP JUMPDEST PUSH1 0x0 PUSH1 0x60 DUP3 ADD SWAP1 POP PUSH2 0x1C05 PUSH1 0x0 DUP4 ADD DUP7 PUSH2 0x1867 JUMP JUMPDEST PUSH2 0x1C12 PUSH1 0x20 DUP4 ADD DUP6 PUSH2 0x1867 JUMP JUMPDEST PUSH2 0x1C1F PUSH1 0x40 DUP4 ADD DUP5 PUSH2 0x16CB JUMP JUMPDEST SWAP5 SWAP4 POP POP POP POP JUMP JUMPDEST PUSH1 0x0 DUP2 ISZERO ISZERO SWAP1 POP SWAP2 SWAP1 POP JUMP JUMPDEST PUSH2 0x1C3C DUP2 PUSH2 0x1C27 JUMP JUMPDEST DUP2 EQ PUSH2 0x1C47 JUMPI PUSH1 0x0 DUP1 REVERT JUMPDEST POP JUMP JUMPDEST PUSH1 0x0 DUP2 MLOAD SWAP1 POP PUSH2 0x1C59 DUP2 PUSH2 0x1C33 JUMP JUMPDEST SWAP3 SWAP2 POP POP JUMP JUMPDEST PUSH1 0x0 PUSH1 0x20 DUP3 DUP5 SUB SLT ISZERO PUSH2 0x1C75 JUMPI PUSH2 0x1C74 PUSH2 0x163D JUMP JUMPDEST JUMPDEST PUSH1 0x0 PUSH2 0x1C83 DUP5 DUP3 DUP6 ADD PUSH2 0x1C4A JUMP JUMPDEST SWAP2 POP POP SWAP3 SWAP2 POP POP JUMP JUMPDEST PUSH1 0x0 PUSH1 0x40 DUP3 ADD SWAP1 POP PUSH2 0x1CA1 PUSH1 0x0 DUP4 ADD DUP6 PUSH2 0x1867 JUMP JUMPDEST PUSH2 0x1CAE PUSH1 0x20 DUP4 ADD DUP5 PUSH2 0x16CB JUMP JUMPDEST SWAP4 SWAP3 POP POP POP JUMP JUMPDEST PUSH2 0x1CBE DUP2 PUSH2 0x1C27 JUMP JUMPDEST DUP3 MSTORE POP POP JUMP JUMPDEST PUSH1 0x0 PUSH1 0x60 DUP3 ADD SWAP1 POP PUSH2 0x1CD9 PUSH1 0x0 DUP4 ADD DUP7 PUSH2 0x16CB JUMP JUMPDEST PUSH2 0x1CE6 PUSH1 0x20 DUP4 ADD DUP6 PUSH2 0x16CB JUMP JUMPDEST PUSH2 0x1CF3 PUSH1 0x40 DUP4 ADD DUP5 PUSH2 0x1CB5 JUMP JUMPDEST SWAP5 SWAP4 POP POP POP POP JUMP JUMPDEST PUSH32 0x496E76616C6964204C5020746F6B656E73000000000000000000000000000000 PUSH1 0x0 DUP3 ADD MSTORE POP JUMP JUMPDEST PUSH1 0x0 PUSH2 0x1D31 PUSH1 0x11 DUP4 PUSH2 0x18F6 JUMP JUMPDEST SWAP2 POP PUSH2 0x1D3C DUP3 PUSH2 0x1CFB JUMP JUMPDEST PUSH1 0x20 DUP3 ADD SWAP1 POP SWAP2 SWAP1 POP JUMP JUMPDEST PUSH1 0x0 PUSH1 0x20 DUP3 ADD SWAP1 POP DUP2 DUP2 SUB PUSH1 0x0 DUP4 ADD MSTORE PUSH2 0x1D60 DUP2 PUSH2 0x1D24 JUMP JUMPDEST SWAP1 POP SWAP2 SWAP1 POP JUMP JUMPDEST PUSH32 0x496E73756666696369656E74204C502062616C616E6365000000000000000000 PUSH1 0x0 DUP3 ADD MSTORE POP JUMP JUMPDEST PUSH1 0x0 PUSH2 0x1D9D PUSH1 0x17 DUP4 PUSH2 0x18F6 JUMP JUMPDEST SWAP2 POP PUSH2 0x1DA8 DUP3 PUSH2 0x1D67 JUMP JUMPDEST PUSH1 0x20 DUP3 ADD SWAP1 POP SWAP2 SWAP1 POP JUMP JUMPDEST PUSH1 0x0 PUSH1 0x20 DUP3 ADD SWAP1 POP DUP2 DUP2 SUB PUSH1 0x0 DUP4 ADD MSTORE PUSH2 0x1DCC DUP2 PUSH2 0x1D90 JUMP JUMPDEST SWAP1 POP SWAP2 SWAP1 POP JUMP JUMPDEST PUSH1 0x0 PUSH1 0x60 DUP3 ADD SWAP1 POP PUSH2 0x1DE8 PUSH1 0x0 DUP4 ADD DUP7 PUSH2 0x16CB JUMP JUMPDEST PUSH2 0x1DF5 PUSH1 0x20 DUP4 ADD DUP6 PUSH2 0x16CB JUMP JUMPDEST PUSH2 0x1E02 PUSH1 0x40 DUP4 ADD DUP5 PUSH2 0x16CB JUMP JUMPDEST SWAP5 SWAP4 POP POP POP POP JUMP JUMPDEST PUSH32 0x496E76616C696420616D6F756E74730000000000000000000000000000000000 PUSH1 0x0 DUP3 ADD MSTORE POP JUMP JUMPDEST PUSH1 0x0 PUSH2 0x1E40 PUSH1 0xF DUP4 PUSH2 0x18F6 JUMP JUMPDEST SWAP2 POP PUSH2 0x1E4B DUP3 PUSH2 0x1E0A JUMP JUMPDEST PUSH1 0x20 DUP3 ADD SWAP1 POP SWAP2 SWAP1 POP JUMP JUMPDEST PUSH1 0x0 PUSH1 0x20 DUP3 ADD SWAP1 POP DUP2 DUP2 SUB PUSH1 0x0 DUP4 ADD MSTORE PUSH2 0x1E6F DUP2 PUSH2 0x1E33 JUMP JUMPDEST SWAP1 POP SWAP2 SWAP1 POP JUMP JUMPDEST PUSH32 0x496E73756666696369656E74206C6971756964697479206D696E746564000000 PUSH1 0x0 DUP3 ADD MSTORE POP JUMP JUMPDEST PUSH1 0x0 PUSH2 0x1EAC PUSH1 0x1D DUP4 PUSH2 0x18F6 JUMP JUMPDEST SWAP2 POP PUSH2 0x1EB7 DUP3 PUSH2 0x1E76 JUMP JUMPDEST PUSH1 0x20 DUP3 ADD SWAP1 POP SWAP2 SWAP1 POP JUMP JUMPDEST PUSH1 0x0 PUSH1 0x20 DUP3 ADD SWAP1 POP DUP2 DUP2 SUB PUSH1 0x0 DUP4 ADD MSTORE PUSH2 0x1EDB DUP2 PUSH2 0x1E9F JUMP JUMPDEST SWAP1 POP SWAP2 SWAP1 POP JUMP JUMPDEST PUSH32 0x4F776E61626C653A206E6577206F776E657220697320746865207A65726F2061 PUSH1 0x0 DUP3 ADD MSTORE PUSH32 0x6464726573730000000000000000000000000000000000000000000000000000 PUSH1 0x20 DUP3 ADD MSTORE POP JUMP JUMPDEST PUSH1 0x0 PUSH2 0x1F3E PUSH1 0x26 DUP4 PUSH2 0x18F6 JUMP JUMPDEST SWAP2 POP PUSH2 0x1F49 DUP3 PUSH2 0x1EE2 JUMP JUMPDEST PUSH1 0x40 DUP3 ADD SWAP1 POP SWAP2 SWAP1 POP JUMP JUMPDEST PUSH1 0x0 PUSH1 0x20 DUP3 ADD SWAP1 POP DUP2 DUP2 SUB PUSH1 0x0 DUP4 ADD MSTORE PUSH2 0x1F6D DUP2 PUSH2 0x1F31 JUMP JUMPDEST SWAP1 POP SWAP2 SWAP1 POP JUMP JUMPDEST PUSH32 0x4F776E61626C653A2063616C6C6572206973206E6F7420746865206F776E6572 PUSH1 0x0 DUP3 ADD MSTORE POP JUMP JUMPDEST PUSH1 0x0 PUSH2 0x1FAA PUSH1 0x20 DUP4 PUSH2 0x18F6 JUMP JUMPDEST SWAP2 POP PUSH2 0x1FB5 DUP3 PUSH2 0x1F74 JUMP JUMPDEST PUSH1 0x20 DUP3 ADD SWAP1 POP SWAP2 SWAP1 POP JUMP JUMPDEST PUSH1 0x0 PUSH1 0x20 DUP3 ADD SWAP1 POP DUP2 DUP2 SUB PUSH1 0x0 DUP4 ADD MSTORE PUSH2 0x1FD9 DUP2 PUSH2 0x1F9D JUMP JUMPDEST SWAP1 POP SWAP2 SWAP1 POP JUMP JUMPDEST PUSH32 0x5265656E7472616E637947756172643A207265656E7472616E742063616C6C00 PUSH1 0x0 DUP3 ADD MSTORE POP JUMP JUMPDEST PUSH1 0x0 PUSH2 0x2016 PUSH1 0x1F DUP4 PUSH2 0x18F6 JUMP JUMPDEST SWAP2 POP PUSH2 0x2021 DUP3 PUSH2 0x1FE0 JUMP JUMPDEST PUSH1 0x20 DUP3 ADD SWAP1 POP SWAP2 SWAP1 POP JUMP JUMPDEST PUSH1 0x0 PUSH1 0x20 DUP3 ADD SWAP1 POP DUP2 DUP2 SUB PUSH1 0x0 DUP4 ADD MSTORE PUSH2 0x2045 DUP2 PUSH2 0x2009 JUMP JUMPDEST SWAP1 POP SWAP2 SWAP1 POP JUMP INVALID LOG2 PUSH5 0x6970667358 0x22 SLT KECCAK256 PUSH27 0xF6D68D2BC3788A6C56157C69E302078A4A9C2C59C53BF23A046CC7 0xBD PUSH27 0x92BF64736F6C634300081300330000000000000000000000000000 "},"methodIdentifiers":{"MINIMUM_LIQUIDITY()":"ba9a7a56","USDC()":"89a30271","WETH()":"ad5c4648","addLiquidityETH(uint256)":"d06d04cc","getAmountOut(uint256,uint256,uint256)":"054d50d4","lpBalances(address)":"0b65092d","owner()":"8da5cb5b","removeLiquidity(uint256)":"9c8f9f23","renounceOwnership()":"715018a6","reserve0()":"443cb4bc","reserve1()":"5a76f25e","setSwapFee(uint256)":"34e19907","swapExactToken0ForToken1(uint256,uint256)":"3e619210","swapExactToken1ForToken0(uint256,uint256)":"64eca46c","swapFee()":"54cf2aeb","totalLPTokens()":"ef6283d9","transferOwnership(address)":"f2fde38b"}}}}}